:020000041000EA
:1000000000B5324B212058609868022188439860DF
:10001000D860186158612E4B002199600221596106
:100020000121F02299502B49196001219960352056
:1000300000F044F80222904214D00621196600F024
:1000400034F8196E01211966002018661A6600F04E
:100050002CF8196E196E196E052000F02FF8012189
:100060000842F9D1002199601B49196000215960AB
:100070001A491B48016001219960EB211966A021F2
:10008000196600F012F800219960164914480160C1
:100090000121996001BC002800D000471248134993
:1000A000086003C880F30888084703B5996A0420EC
:1000B0000142FBD001200142F8D103BD02B5186610
:1000C0001866FFF7F2FF186E186E02BD00000240BE
:1000D000000000180000070000035F00212200005C
:1000E000F4000018222000A00001001008ED00E03C
:1000F00000000000000000000000000074B24E7A12
:1001000000200420F7010010C3010010C5010010F9
:10011000C1010010C1010010C1010010C101001097
:10012000C1010010C1010010C1010010C701001081
:10013000C1010010C1010010C9010010CB01001065
:10014000CD010010CD010010CD010010CD01001037
:10015000CD010010CD010010CD010010CD01001027
:10016000CD010010CD010010CD010010CD01001017
:10017000CD010010CD010010CD010010CD01001007
:10018000CD010010CD010010CD010010CD010010F7
:10019000CD010010CD010010CD010010CD010010E7
:1001A000CD010010CD010010CD010010CD010010D7
:1001B000CD010010CD010010CD010010CD010010C7
:1001C00000BE00BE00BE00BE00BE00BEEFF3058054
:1001D000103800BEF2EB8871FCB3001024B400109C
:1001E0003402001090A31AE700201F49086006C8D7
:1001F00081F3088810471D48006800282FD10DA4FE
:100200000ECC002902D000F012F8F9E71849194A7B
:10021000002000E001C19142FCD1174988471749ED
:1002200088471749884700BEFDE701C901C29A42C5
:10023000FBD3704724B40010C0000020200D002024
:1002400084C00010000004200000042084C00010BE
:10025000001004200010042000000000704709482E
:1002600003F034FD0047000008ED00E0000000D07E
:10027000300D002078130020E9240010110D00102B
:10028000112600105756000006005250ABB36053C1
:10029000E0A9001006005250861C0302F0A90010CD
:1002A000060052505422A29D04AA0010050052508C
:1002B000DE65F46884C00010F8B5C04610B5064C81
:1002C0002378002B07D1054B002B02D0044800E017
:1002D00000BF0123237010BD30100020000000007B
:1002E00038A60010044B10B5002B03D00349044876
:1002F00000E000BF10BDC046000000003410002028
:1003000038A60010036810B50400002B2FD09F46BC
:10031000184B0360D0231B061B6DDB0720D4012084
:1003200010BD154B0360D0231B061B6DDB07F6D5F4
:1003300005F010F8114B1860114B2360EFE7104BDC
:100340000360D0231B061B6D9B07E8D50D4B186877
:100350000A4B1B68C01804F0F3FF064B2360DEE76E
:1003600004F0F8FF074B1860034B2360D7E7014BFD
:100370000360D4E7100300102203001028110020AE
:100380003E03001024110020F0B5C64602680400A8
:10039000012300B5002A26D00126B4461026D02716
:1003A000B046164A16481749174D3F062260002BE3
:1003B00003D0836A0E68B34203D2012080BCB846E2
:1003C000F0BD6646836A14330B602B787340DBB252
:1003D0002B70002B03D043467B610023E6E74346A6
:1003E000BB610023E2E7042000F088FDD023102247
:1003F0001B065A625A61014B2360DEE7DE030010E0
:10040000004005405411002070130020036870B5AF
:100410000400002B00D172E09F46414B0360414B2A
:1004200041481D680168414BCA180123921093404E
:100430001D4200D061E00B68002BFCD0BFF35F8F42
:100440003B4B1B68BFF35F8F00223A491A600B6871
:10045000013B0B600368BFF35F8F1A60364B19686E
:100460000A68002AFCD0BFF35F8F34490A68013262
:100470000A601A68BFF35F8F0021116019680A686B
:10048000002AFCD0BFF35F8F2D4A22601B68BFF3A8
:100490005F8F00221A60012070BD2A4B2A4A036038
:1004A0002A4B916A18688142F5D3926A32321A60F7
:1004B0001F4B19680A68002AFCD0BFF35F8F184AE7
:1004C0002260E3E71E4B224A03601368002B20D012
:1004D000013B1360184B1B68BFF35F8F00220121A3
:1004E0001A601C4A13784B40137014D0D023082292
:1004F0001B065A61134B2360CDE70D4BC6E7032063
:1005000000F0FCFCD02308221B065A629A610A4BB9
:10051000B4E7094BBAE7D02308221B069A61E9E742
:100520001A0400105C0000D03011002000FFFF2FE3
:100530003811002004110020381300205C13002023
:10054000C40400109A040010004005405811002017
:100550006013002071130020036870B50400002BA5
:1005600000D176E09F46434B0360434B43481D68F0
:100570000168434BCA180123921093401D4200D0DA
:1005800065E00B68002BFCD0BFF35F8F3D4B1B6811
:10059000BFF35F8F00223C491A600B6801330B6088
:1005A0000368BFF35F8F1A60384A13680133136022
:1005B000374B19680A68002AFCD0BFF35F8F3549B2
:1005C0000A6801320A601A68BFF35F8F0021116068
:1005D00019680A68002AFCD0BFF35F8F2E4A226098
:1005E0001B68BFF35F8F00221A60012070BD2B4B88
:1005F0002B4A03602B4B916A18688142F5D3926AAB
:1006000032321A601F4B19680A68002AFCD0BFF307
:100610005F8F184A2260E3E71F4B234A0360136889
:10062000002B20D0013B1360194B1B68BFF35F8F79
:10063000002201211A601D4A13784B40137014D018
:10064000D02304221B065A61144B2360CDE70D4BC7
:10065000C6E7022000F052FCD02304221B065A6297
:100660005A610B4BB4E70A4BBAE7D02304221B06AE
:100670009A61E9E7660500105C0000D030110020A7
:1006800000FFFF2F38110020041100206413002008
:10069000381300206013002018060010EE0500102B
:1006A00000400540601100205C13002073130020FF
:1006B000F0B5D6464F464646036804000125C0B54E
:1006C000002B3BD0234B244E9846244B244F994675
:1006D0002660002D04D0234B39689A6A8A4205D2DD
:1006E0000120E0BCBA46B146A846F0BD1E4A9B6A4E
:1006F000944663443B60434601221B785340424684
:10070000137015D1D02380221B0692049A614B46A8
:10071000196800250129DBD9144B15489A461A6837
:1007200004F0DEFC534652461B6801331360CFE7EA
:10073000D02380221B0692045A61E8E7192000F0BA
:10074000DDFBD02380221B0692045A625A61024BC1
:100750002360C5E772130020180700100411002061
:100760005C1100200040054050C300001011002023
:1007700038A6001070B5624C2568002D00D17DE0D0
:10078000AF46604B2360604B9A69920600D58AE0C1
:100790005E4A0021525E7F2A00D193E020225A490E
:1007A00010008B6918401A42FAD17F23584A0B6017
:1007B0001368013B00D583E01360632B00DC70E01D
:1007C00000230220236070BD524B23604E4B9A6978
:1007D000920668D4504D4D4A2E780021525EB242A6
:1007E00077D02022484910008B6918401A42FAD16C
:1007F0000E602A780D2A73D07F2A56D044480168AB
:100800004B1C036045484254D7E7454B23603E4BA1
:100810009A69920647D43D4A0021525E0A2A48D07E
:100820002021394A93691942FCD10A231360C7E792
:100830003C4B2360344B9A69920634D4334A0021EE
:10084000525E202A54D020212F4A93691942FCD1AC
:100850002C4B116001202360B5E7334B2A4A2360FB
:1008600093691021DB061ED493691942FCD11268EA
:10087000294B01201A70274B2360A4E76422002132
:10088000264804F021FA224B1F4A1D609369DB06BB
:1008900007D4102193691942FCD113689369194256
:1008A000F8D0214B236001208DE71E4B01202360EF
:1008B00089E720219A691142FCD10D221A60AFE725
:1008C0001060EEE720219A691142FCD10D221A60D6
:1008D00064E720219A691142FCD10D221A6080E759
:1008E0000B4B0E4A1B68D0540D4B012023606AE766
:1008F00020219A691142FCD10D221A60A3E7C0465B
:1009000038120020820700100040034068130020C6
:1009100050110020C807001074130020701100202F
:100920000A080010300800105A080010F0B5C6463A
:10093000154B00B51B68002B25D1144B1B68002BF1
:100940001ED1002290464246114F124D3B68124E76
:100950002A60002B13DD0022340053009B189B00FB
:10096000F31820009B6898472B680C345A1C3B688E
:100970002A609A42F1DB42462A60002BEBDCFEE75C
:1009800080BCB846F0BD9F46641100206C11002069
:10099000401200202011002048120020F0B5C64669
:1009A000154B00B51B68002B25D1144B1B68002B81
:1009B0001ED1002290464246114F124D3B68124E06
:1009C0002A60002B13DD0022340053009B189B008B
:1009D000F31820009B6898472B680C345A1C3B681E
:1009E0002A609A42F1DB42462A60002BEBDCFEE7EC
:1009F00080BCB846F0BD9F46681100206C110020F5
:100A0000441200201C110020C0120020D0231B061D
:100A10001A6D70B5D20704D501219A6D1A6D114275
:100A2000FBD1D0231B061B68012B2ED02E4A136846
:100A3000092B05DD00222D4B1A60FFF777FF70BDF3
:100A400059002B48C9182B4D89004418A560002572
:100A500063605C1C455014600A2CEBD061000919DE
:100A6000890046187460244C4550B4609C1C146086
:100A70000A2CDFD0610009198900461874601F4CE8
:100A80000333B46045501360D4E71D4A1368092B43
:100A900005DD00221B4B1A60FFF780FFCFE75900EE
:100AA0001948C918134D89004418A56000256360D2
:100AB0005C1C455014600A2CEBD0610009198900B8
:100AC000461874600C4C4550B4609C1C14600A2C91
:100AD000DFD061000919890046187460074C0333A0
:100AE000B46045501360D4E7401200206411002028
:100AF00048120020890300100D04001005030010A7
:100B00004412002068110020C01200200368012256
:100B1000F0B5002B21D0174B0360002A1BD0164BD9
:100B20009A69920617D4154E154D3468154A2F5DF3
:100B30000021525EBA4215D020210F4A9369194212
:100B4000FCD10134176034602B5D0022002BE2D110
:100B500003600220F0BD0120FCE7084A0024084D94
:100B60001360F1E720219A691142FCD10D221A602D
:100B7000E2E7C046160B0010004003403C11002085
:100B8000D411002068130020F0B503680400484D1C
:100B900083B0002B34D09F46464B0360D0231B0606
:100BA0001B6DDB0760D504F0D5FB434902004348C9
:100BB00003F028F800233E4D2B60414B28002360B2
:100BC000FFF7A4FF012851DD3E4B3F49986A3F4B98
:100BD0001F683F4B1E6803F0D3F83E4B01901B6823
:100BE000320000933C493B00344803F00BF80023EB
:100BF0002B603A4B28002360FFF788FF012835DD82
:100C00002E49374B0A0043CB43C203CB03C2002318
:100C10002B60344B28002360FFF778FF012825DD87
:100C20000022314B1A60314B2360FFF7A3FD0128EE
:100C30001CD92F4D2F4E2B0032002F492F4805F085
:100C400013F92B6832682E49D2181C4802F0DAFFDB
:100C50000023174D2B602B4B28002360FFF756FF16
:100C6000012803DD284B2360012000E0002003B0B1
:100C7000F0BD254B0360D0231B061B6D9B07F3D5EE
:100C80001C4B186804F05CFB204B01202360EEE74E
:100C90001E4B0360D0231B061B6D9B07E4D5144B32
:100CA000186804F04DFB034B01202360DFE7C046CA
:100CB0003C120020980B001084A60010D4110020D4
:100CC000BA0B00100040054040420F0010110020F8
:100CD000041100206413002098A60010F20B0010ED
:100CE0005CA60010120C001038120020260C001018
:100CF000581300205413002070A60010701100201B
:100D000078A60010560C0010720C0010900C001009
:100D1000F8B504F0F1F95C4804F0E2F9182000F0AD
:100D200043F95A4C20600368002BFCD0BFF35F8F5F
:100D30001F2000F039F9564B18602368BFF35F8F0E
:100D4000002218201A6000F02FF920600368002BA1
:100D5000FCD0BFF35F8F1E2000F026F94D4B1860CA
:100D60002368BFF35F8F002219201A6000F01CF97E
:100D7000494C20600368002BFCD0BFF35F8F012239
:100D8000464B1A602368BFF35F8F002219201A6058
:100D900000F00AF920600368002BFCD0BFF35F8FDE
:100DA00000233F4A13602268BFF35F8F1360D02394
:100DB0001B061A6DD20704D501219A6D1A6D1142D6
:100DC000FBD104F0D5FA374804F026FBD0231B06EC
:100DD0001B68012B2CD0344A1368092B06DD002236
:100DE000324B1A60FFF7A2FD0020F8BD0C20040072
:100DF0005C432F492F4E0D196B60AE600025655086
:100E00005C1C14600A2CEAD0060066438F197C60D3
:100E1000294C7550BC609C1C14600A2CDFD06043C8
:100E20000E187460254C0333B46045501360D6E748
:100E3000234A1368092B05DD0022224B1A60FFF7B5
:100E4000ADFDD1E70C2004005C431F49194E0D197C
:100E50006B60AE60002565505C1C14600A2CEBD002
:100E6000060066438F197C60134C7550BC609C1C57
:100E700014600A2CE0D060430E1874600F4C0333EA
:100E8000B46045501360D7E7C0A6001038110020A9
:100E90003411002030110020381300205C13002092
:100EA000601300200D0A0010401200206411002081
:100EB00048120020890B0010B106001059050010DF
:100EC0004412002068110020C0120020094A83004B
:100ED00094464022634410B51C68C0006240C024A0
:100EE00014408022520113431C60034B9C46604413
:100EF000416010BD04C00140004001400123D022E8
:100F00008340120693629361094A8300944640220B
:100F100063441968C0004A40C02111408022520138
:100F200013431960034B9C4605236044436070479C
:100F300004C0014000400140024B18688007C00F08
:100F40007047C04600C0064070B5EFF3108C72B613
:100F50000D4D2B68002BFCD0BFF35F8F0724CB080F
:100F6000C618C05C01230C40A3401C00044003428F
:100F700007D103433370BFF35F8F2C608CF310886D
:100F800070BD100001F062FB2C0100D00021044B69
:100F9000044ABFF35F8F02C39342FAD17047C04641
:100FA000000100D0800100D0044B9C4660448000CA
:100FB000BFF35F8F002303607047C04640000034DA
:100FC000044A1078431CDBB2172B00D9102313708E
:100FD0007047C0469002002001238340002904D0BE
:100FE000034A1360034A13607047034A1360FBE728
:100FF00080E200E000E100E080E100E001228240C8
:10100000034B1B6813405A1E9341D8B27047C04629
:1010100000E100E0024B10309B688000C058704730
:1010200000ED00E070B50D00EFF3108672B60F4AC8
:101030001368002BFCD0BFF35F8F0D4B10309B6803
:1010400084001B590B4A934203D09D4201D001F00A
:1010500015FB074B9B681D51BFF35F8FBFF35F8F7D
:101060000022024B1A6086F3108870BD240100D064
:1010700000ED00E0CD010010F0B5DE4657464E46CB
:101080004546E0B50C0083B0EFF3108972B6584ABC
:101090001368002BFCD0BFF35F8F564B9A68030098
:1010A00010339F00D559544A9046954232D0A542FC
:1010B00043D0524EAA1B2F2A2CD80122824092469E
:1010C00051464F4A12681140019151464D4A1160F4
:1010D000BFF35F8FEFF305829346002A33D10123DC
:1010E0002A009A4393689C4208D177E04B005B1832
:1010F0009B00F3189968A1422AD01A000621515684
:101100000029F3DA019B002B19D052463E4B1A609E
:101110003B4B1A60374B9B68DD51BFF35F8FBFF3CA
:101120005F8F0022324B1A6089F3108803B0F0BC45
:10113000BB46B246A946A046F0BD1500EAE75246B6
:10114000304B1A60E6E79342C9D001F097FAC6E740
:1011500006215956002921DB4A0050188000341816
:101160008046A0689860E079D87106202056987172
:10117000002824DBA488F01A6405241544440019CF
:10118000E0240005400D24022043988052181F4B94
:101190009200B6181A781970B271B3E7594600294F
:1011A0000FD1FF3191711A49918018490A789A71CB
:1011B000184A9B1B5B415A43120D0A70A2E716485E
:1011C000E3E7164A1649D21A083A5002400D014385
:1011D0009980144952080A43DA8093E70621515650
:1011E00013000029B8DA5A46002AEAD14546DCE75E
:1011F000240100D000ED00E0CD0100109402002099
:1012000000E100E080E100E080E200E076130020F1
:1012100001BDFFFFAAAA000001BD0000CE02002010
:1012200000F0FFFF00F8FFFF70B5EFF30581012428
:101230000443EFF3108C72B6214A1368002BFCD0E4
:10124000BFF35F8F1F4B05001F4AED1A6D416A43C4
:10125000120D1E4D8900AE6852B27658A6421CD0BF
:101260000621595691421CD012215956914222D042
:101270001E215956914220D02A21595603249142C9
:1012800010D0134B19781A708171BFF35F8F002251
:101290000B4B1A608CF3108870BDAB680D4C5C5022
:1012A000EFE700246100091989005B18FF2199719B
:1012B00009499980E5E70124F4E70224F2E7C046F2
:1012C000240100D094020020AAAA000000ED00E052
:1012D00076130020CD01001001BDFFFF054B064A2B
:1012E0001360064A136053609360D36013615361C7
:1012F000936170478080808000E400E004E400E0B7
:10130000024B9C46614489000160704740000034F4
:1013100010B50400FFF754FE01002000FFF7F0FFB6
:10132000FF232371BFF35F8F10BDC04610B50400CB
:10133000FFF746FE01002000FFF7E2FFFF23A38036
:10134000BFF35F8F10BDC04683680B4810B584465D
:1013500061446244090112019A18591854684B6893
:1013600001209C4201D802D00020C0B210BD1268FA
:101370000B689A42F9D8F7E7FFFFFF0F0A4B19688D
:10138000EFF3108072B60A68002AFCD0BFF35F8FBB
:101390001B68BFF35F8F00221A6080F3108840BF84
:1013A000002000217047C04640130020F8B5574682
:1013B0004E464546DE46E0B599460CAB1C780DAB73
:1013C0001B78060090469A460768002C11D1BC7B1A
:1013D000002C42D065003B682D19033D59194B780C
:1013E000BB73002B00D1FB7300238B704B700B7011
:1013F00004E065003B682D19033D5919B2682A4B7A
:1014000094464246E3181B0163441A604A465A60F8
:101410000A9A9A600B9ADA6000238B704B700B70FB
:101420007B7B9B46002B2BD022005946B8687B68FB
:1014300098473A68002816D05B4658465B005B44E4
:101440005519033BA870D118D35C002B00D06B70EA
:101450005B460C707B73A34513D0F0BCBB46B24611
:10146000A946A046F8BD5B465B005B44033BD3182E
:101470009C705119525D002A00D05A705B460B7067
:101480007C7342464B46307D00F02EFB051E06D095
:101490005346002B03D12100306800F049FD0E9B1C
:1014A000002BDAD01D70D8E7FFFFFF0FF0B5DE4646
:1014B00057464E4645460023E0B58BB00893674B30
:1014C0008200D45800239B46099000F093FA62688A
:1014D00006000F00EFF3108572B61368002BFCD0E6
:1014E000BFF35F8F23689C465B7B9946002B00D13E
:1014F00069E0A2685A4B90464B441B01984443460E
:101500001A685B6810001900801BB941002900DCD3
:1015100063E0099800F0E8FA0023002298460023CF
:101520000692079300239A466368BFF35F8F5A467B
:101530001A6085F310885346002B08D10028C4D1C7
:101540000BB0F0BCBB46B246A946A046F0BD089B16
:10155000414618024B461843D047626806000F0008
:10156000EFF3108572B61368002BFCD0BFF35F8FCA
:10157000002F50DB33003B4302D02369002B61D1A5
:101580002368D97B002907D04A00521819688C4675
:1015900049466244033A51709A7B002A01D14A4677
:1015A0009A734A46DA734B46E168013BCA5C0132E2
:1015B000CA545B4623616368BFF35F8F5A461A6063
:1015C00085F3108881E700230022984600230692C5
:1015D0000793002300209A46A6E7002902D100289D
:1015E00000D096E70021604600F020FC43461A68D0
:1015F0005B680692079343469B689A464346DB68BE
:101600009846E3684B44013B1B7808931B02034355
:101610002361002088E72369002BB1D0069A079B3D
:10162000921BBB41002B15DB59460491012103910C
:101630004946029141460191514620000091FFF731
:10164000B5FEB6E700F0D6F932003B0012184B4168
:10165000002BE9DA0122034B5242E5E7401100205A
:10166000FFFFFF0FFFFFFF7F10B5144C6368002BD7
:1016700004D00A211248FFF743FE10BD2300114A8F
:101680001021206800F0ECFA032000F0A7F90320F5
:1016900000F094FA03200C4900F0E0F9FFF790FC09
:1016A0000A4B9C4603232375D0231B061B6860440A
:1016B0006375074B80006060DC60DAE7DC020020C5
:1016C0004013002049130010AD14001040000034F6
:1016D00040110020F0B54E464546DE465746E0B57F
:1016E00085B0019310AB1B78060003930023994645
:1016F000984600927268EFF3108B72B61368002B55
:10170000FCD0BFF35F8F3568AC7B002C3DD0670009
:101710002B683F19033FDB195A78AA73002A00D1BE
:10172000EA73B168474A8C4600980199A2181201E1
:101730006244106051600E9991600F99D1604246E9
:101740009A705A701A706B7B9A46002B67D02200F1
:101750001900A8686B6898472A68002852D0534639
:1017600050465B005344D719033BB870D118D35C83
:10177000002B00D07B7053460C706B7354454FD0D8
:10178000F3681B19013B187800E000207368BFF371
:101790005F8F42461A608BF31088002C4FD04B4667
:1017A000002B08D10002204305B0F0BCBB46B24676
:1017B000A946A046F0BD039B002B3ED00E9B002007
:1017C0000F999847030004000D000B4335D0002902
:1017D0000ADA009A019B121BAB4100920193002B85
:1017E0000ADB039B994685E700F004F924184D4174
:1017F00000940195002DF4DA0123134C5B42009311
:101800000194EEE753465B005344033BD3189C70AE
:10181000D119D25D002A00D05A7053460B706C73F8
:10182000307D009A019B00F05FF981460028A7D027
:101830002100306800F07CFBA2E70020B4E7012023
:101840004042B1E7FFFFFF0FFFFFFF7FF0B5EFF36F
:101850000583CE46474680B505000C0085B0002BB9
:1018600012D02C4A0020536A9C4203D8926A01305D
:10187000AA4204D305B0C0BCB946B046F0BDE01AD8
:10188000421E9041C0B2F5E7234E02930193234BD1
:101890000200009330000B00FFF71CFF031EE0DD89
:1018A00020BF7168EFF3108772B60A68002AFCD077
:1018B000BFF35F8FDAB294463068427B62451DD039
:1018C000FF221A40510089460168914488464946E2
:1018D000414403398978002913D0F1681B0A8846EE
:1018E0004244013A1278DBB29A420FD07368BFF3D8
:1018F0005F8F00221A6087F31088B2E7FF221A4038
:10190000EBE732699342F1D13161EFE7614600F0D4
:101910000FFBEBE700400540DC0200207D130010C8
:10192000F0B5EFF30582D6464F4646461000C0B5E7
:101930001038EFF3108872B6214C2368002BFCD0CE
:10194000BFF35F8F0123190081401E4D1F006963A3
:10195000AA461D4D29601D4D2E78AC463500C54068
:101960002F402B4209D1BFF35F8F276088F3108887
:10197000E0BCBA46B146A846F0BD5346144D5F6A76
:1019800083005D59AF420ED3124A8E439B58624684
:101990001670BFF35F8F0022226088F31088002B3F
:1019A000E6D09847E4E70C4B92009C4662441368EB
:1019B0001360BFF35F8F0023236088F31088D7E79D
:1019C000280100D0004005403C70054077130020FE
:1019D0004413002084100020D03F054010B50100C2
:1019E000024A0348FFF7B0FA10BDC046E8A600104F
:1019F00075130020034B596A0A00986A596A8A4293
:101A0000FAD170470040054070B504000D00124A3D
:101A1000536A1900966A536A8B42FAD13000190052
:101A200024184D41AB4211D80ED02B000A494A6A06
:101A30009A42FCD307D1084A02E0516A994202D186
:101A4000916AA142F9D370BDA642EED901230124C7
:101A50006442E5175B42E9E70040054070B50400C9
:101A60000D00EFF3108672B61A4A1368002BFCD0F3
:101A7000BFF35F8F002D1BD02000FFF7CBFA164974
:101A800081420AD02000FFF7CDFA01212000FFF7A4
:101A9000A3FA0123A340114A1360114BA400E5509F
:101AA000BFF35F8F00220B4B1A6086F3108870BD66
:101AB0000B4BA200D5500122A2400A4920000B780E
:101AC00093430B700449FFF7D7FA00212000FFF77A
:101AD00083FAE5E7280100D021190010386005409D
:101AE0008410002077130020F0B54F46D6464646B6
:101AF000C0B507002C4C616A0D00A66A616AA94254
:101B0000FAD18B4208D805D00120E0BCBA46B146D4
:101B1000A846F0BDB242F7D9EFF3108A72B6234857
:101B200001680029FCD0BFF35F8F0125BD4020492B
:101B30001D4C8846097889462943C9B28C464146DE
:101B400060460870391D1B48890065630A51B90059
:101B50000B50216A0020294219D0616A0800A66A48
:101B6000616A8142FAD18B4219D801D1B24216D8AA
:101B7000CC4516D00C4B1F201D625D63012307402E
:101B8000BB400D4A1E38136043464A461A70BFF3E5
:101B90005F8F0022054B1A608AF31088B5E700209A
:101BA000F5E70120F3E7C04600400540280100D0DA
:101BB000771300204413002080E200E0EFF3108C44
:101BC00072B60A490B68002BFCD0BFF35F8F01236C
:101BD0008340074A0748136202789A430270BFF3B2
:101BE0005F8F00230B608CF310887047280100D0B2
:101BF000004005407713002070B505001400160062
:101C0000002915D00C00002A12D080686B68984714
:101C1000296800280ED073009B196200033B12193B
:101C2000CB18033A9C7088188A5C002A15D106707C
:101C3000200070BD63001B197200033B9219CB1882
:101C4000033A9E7088188A5C002A02D1047034001E
:101C5000EEE75A7004703400EAE75A700670E7E75E
:101C600030B583600023CCB2437301330473426008
:101C70008373C4730D000068012C06D9421C013324
:101C8000DBB2137003329C42F9D1FF2129404B0093
:101C90005918002340180338437030BDF8B5CE46BC
:101CA000474606000C0080B5002907D04D000368A8
:101CB0006D18033D5A195778002F04D12000C0BC7D
:101CC000B946B046F8BD7900C9190339884643447E
:101CD0005978894600215970517073683A00210083
:101CE000806898473368002814D042469A18947048
:101CF00059195B5D002B00D053700F7027004946C7
:101D00003000FFF7CBFF390002003000FFF774FF0F
:101D10000400D3E7424641465D19AF709A185B5CF8
:101D2000002B00D06B701470E9E7C046F0B5574641
:101D30004546DE464E46E0B50D006B0001685B1976
:101D4000DF1E0400C85D83B00192CA19002850D07C
:101D500043001B18033BCB185E78B446002E1AD103
:101D6000019E002E42D0E67B002E04D073009B190A
:101D7000CB18033B5D70A37B002B00D1A573E573EB
:101D800000282FD10023537003B0F0BCBB46B246ED
:101D9000A946A046F0BD72006244033A89184A7809
:101DA000904600224A7091465A700100320020008D
:101DB000FFF722FF43468246002B07D05B002168D5
:101DC0004344033BCB185A78002A16D14246514669
:101DD0002000FFF711FF2168019BCA19002BC2D117
:101DE0000028CFD043001B18033BCB18002199706B
:101DF000C8E7019B002BB6D1C4E750008018033818
:101E00000918487883464846487058704146200073
:101E1000FFF7F2FE594680462000FFF73FFF41469C
:101E200002002000FFF7E8FE8046CFE7F0B55746F6
:101E30004546DE464E46E0B583B00191457B040041
:101E40006B0000685B19DF1EC15DC219002952D00A
:101E50004B005B18033BC3185E78B446002E1CD1C0
:101E6000019E002E44D0E67B002E04D073009B1907
:101E7000C318033B5D70A37B002B00D1A573E573F2
:101E8000002931D1002328005370617303B0F0BCE6
:101E9000BB46B246A946A046F0BD72006244033A72
:101EA0008018427890460022427091465A70200075
:101EB0003200FFF7A1FE43468246002B07D05B00AD
:101EC00021684344033BCB185A78002A17D1424675
:101ED00051462000FFF790FE019B01002068C219C7
:101EE000002BC0D10029CDD04B005B18033BC31899
:101EF00000209870C6E7019B002BB4D1C2E75000C8
:101F00008018033809184878834648464870587046
:101F100041462000FFF770FE594680462000FFF73B
:101F2000BDFE414602002000FFF766FE8046CEE778
:101F300070B5040000292CD0437B8B422ED005685D
:101F400048004018033828188278002A21D053000E
:101F50009B18033BEA5CEE188A4202D11BE0002A80
:101F600008D053009B18033BEB185A788A42F6D1ED
:101F700042785A7000230122837043702000FFF7DB
:101F8000D5FE617B02002000FFF736FE6073012062
:101F900000E0002070BD43783370EBE701221900A8
:101FA000FFF7C4FE60730120F4E7C046F8B5CE46E3
:101FB0004746040080B506200E0000F023FA051EF7
:101FC00051D0524B5249E21853425A418023DB030D
:101FD0009C4692054F4B62441A604F4B1A601000AA
:101FE0008B689843FBD1494B8021E3185A425341F7
:101FF0004A4A5B0049009952062000F003FA31007A
:10200000C00001F0BDFEC30932D14022012190463B
:102010006162A362256BEB0736D427008026E36A52
:1020200000232C3776013E4333600620256300F001
:10203000E9F94146800001F0A3FE236B05009846B4
:10204000DB073BD46022E36A5A406E2313403360BF
:1020500043462363802310229B013B431A60304B8D
:1020600023630323A3642800C0BCB946B046F8BD6F
:102070002C4A93423FD900232B492C4A6162A36228
:10208000256B9046EB07C8D52200C02330329B0158
:102090001343234A06201A60666AA26AB601B6187C
:1020A00000F0B0F9224901F06BFEB60201003000E9
:1020B00001F066FE0021FFF7A7FCAEE72200C02377
:1020C00030329B011343164A06201A60636AA26AE3
:1020D0009B019946914400F095F94B4614499B02A7
:1020E000994601F04DFE0100484601F049FE0021ED
:1020F000FFF78AFCA6E77F2299018846104001304D
:10210000400819008044030082E7C0460080FCBFFD
:1021100000C0004000E0004000F0004068130020D4
:1021200001030000FEFF0000FFFF0000C0FF3F00B2
:102130004E0E000030B50C2083B000F0B9F9FEF768
:10214000FBFE00280ED0994B994A1A605A609A609B
:10215000DA601A615A619A61DA611A62954A5A62C2
:1021600003B030BD944CA06700F0AAF90122934B54
:102170001A60636C012BFCD10322914B1A608E4ACA
:10218000936B012BFCD1013301218E4A8E480093C1
:10219000043300F03DF905238C4A009301218C485B
:1021A00000F036F98B4B5A68FF2A02D88022520081
:1021B0005A6080227D4C824B21691201854D1A6044
:1021C000002907D0606901F0DBFD431C5800C018EE
:1021D0000338FDD2E0217F4B02201A681140802293
:1021E00052012A43116019684840032101401160DF
:1021F00004219A681142FCD08022802192012A4356
:1022000009011160802252005A60734B2361734BA5
:102210005968FF2900D85A600321684A6F4B116042
:1022200002399A681142FCD0E0201A6810408022DE
:1022300052011A43106018684840032101400220EF
:10224000116066498A681042FCD0802292011343D3
:10225000802212011A608022614B52004A60636141
:10226000604B5968FF2900D85A6080225E4BE169B3
:1022700012015C4D1A60002907D0606901F080FDF1
:10228000431C5800C0180338FDD2E02255490B68A2
:102290001A4080235B012B431A60802380229B011C
:1022A0002B4312011A608022414B52004A60E361C5
:1022B0004E4B5968FF2900D85A6080224C4B216A46
:1022C00012014A4D1A60002907D0606901F058FDDB
:1022D000431C5800C0180338FDD2E02243490B6864
:1022E0001A4080235B012B431A60802380229B01CC
:1022F0002B4312011A60802380225B004B602C4B21
:10230000D20223623B4B5968914200D25A6080222C
:10231000394B616A1201374D1A60002907D0606994
:1023200001F02EFD431C5800C0180338FDD2E022F6
:1023300030490B681A4080235B012B431A608023CD
:1023400080229B012B4312011A608023DB024B6029
:10235000184B6362294B5A68FF2A02D88022520028
:102360005A608022264BA1691201244D1A6000296F
:1023700007D0606901F004FD431C5800C018033801
:10238000FDD2E0221D490B681A4080235B012B43DC
:102390001A60802380229B012B4312011A60802344
:1023A0005B004B600E4BA361DAE6C0469C10002038
:1023B000006CDC021BB70000008000403CB0004015
:1023C00030B00040002F685900800240008C8647E2
:1023D00000C0024030800040001BB7003C8000403D
:1023E000405973075480004054B000406080004062
:1023F00060B000406C8000406CB0004048800040FD
:1024000048B00040014B8000C05870479C1000202D
:10241000F8B5040021481D0017000E0001F0B0FCC3
:102420000100380001F0ACFC069B29041B03194392
:102430002368002B20DB1A4B1A4DE21853425A41F5
:1024400080235B019C461203174B62441A60174BB2
:102450001A601700AB689F43FBD1C022231D920175
:102460001A4321232660A06013602368002BFCDA46
:102470000823E1601360F8BD3F2322681340B34294
:10248000D9D1A3681B051B0D8342D4D1EE22E3688A
:10249000D20213408B42CED1EDE7C046001BB700FD
:1024A0000040FDBF00C0004000E0004000F00040E0
:1024B0008023024A9B000343D3627047008005409B
:1024C000AA23064A1B0113602F230549D360054B3D
:1024D00019605368002BFCDA7047C0460040024088
:1024E00000B0FA00006002402C4B2D4A70B51A6013
:1024F0002C4A2D4B2D491A6014008B689C43FBD14C
:102500002B4D2C4EB54208D2013E761BB60808CDA5
:10251000984723000134B342F9D1FFF70BFE264A56
:10252000214B1A60214A9368DB43DB01DD09002B54
:10253000F9D14022214B224C224E9A675A671A67E2
:10254000DA66B44208D223682000002B20D0083479
:10255000FEF7ECFEB442F6D31B4E1C4CC022A16821
:10256000300002F0B7FBA660FEF710FDFEF7B6FEE6
:10257000FFF77AF8164C174EB44208D2013E361BCC
:10258000B60808CC98472B0001359E42F9D170BDA2
:102590000834FEF7BDFEB442D5D3DDE700E00040CD
:1025A000BFCDFBFEFE7F3C0000F0004000C00040BD
:1025B000080D0020180D0020FFFFFF0100F0014072
:1025C000F80C0020080D00200000002000ED00E0C5
:1025D000180D0020200D002000BEFDE7094A030071
:1025E0001068002805D00849C3188B4207D813602B
:1025F000704706480449C31810608B42F7D9012080
:102600004042F5E718110020000004207813002054
:1026100010B5FFF7E1FFC04610B50C0082B01900FD
:10262000002A0AD0064B01920093020023000548BD
:1026300001F00CFB0120FFF7CFFF034B1A00F2E77C
:102640000CA700101CA7001094A600100FB400B532
:10265000084883B002F0A2FC049B002B07D005A918
:102660001800019101F012FB034802F097FC0120D1
:10267000FFF7B2FF4CA700105CA7001010B501488F
:10268000FFF7E4FF60A700109A4200D28854704719
:102690007047C046F8B557464E464546DE46E0B55B
:1026A00099460A9B07009A460D9B8846934615005B
:1026B0000B9E9B0710D10C9B9E420DD29D1B1400BC
:1026C0000E005D4422004B46013431002020B84703
:1026D000A542F7D1B0460B9E002E27D0444675196F
:1026E0005346AA1B013E985D21004B46B847002E79
:1026F000F6D123002C0098460D9B9B070FD55B4617
:10270000E51A0C9BAB420AD94646984622004B4636
:10271000310020200135B8470134A845F6D8200003
:10272000F0BCBB46B246A946A046F8BD2C00E3E784
:10273000F0B54F464646D646C0B584B098460EAB77
:102740001B78129F994694460D9C109B119EBA07C8
:1027500025D4002E4BD19C4200D3BFE001223A4049
:1027600092461F2C00D9B8E00C9A551E302201E089
:10277000202C03D001342A55A342F9D85246002A0E
:102780000DD0A6420BD9202C44D00C9A551E3022D5
:1027900001E0202C3ED001342A55B442F9D1FA068A
:1027A0004DD57A053FD4002C39D10F9B102B00D189
:1027B00079E00F9B022B00D18AE030230C9A012490
:1027C00013704B46002B3FD02D230C9A1355013428
:1027D0000C9B624600930397434602960194FFF7D1
:1027E00059FF04B0E0BCBA46B146A846F0BD01228C
:1027F00015003D40AA463A422FD04A46002A02D14F
:102800000C323A4200D0013E9C42BAD21F2CABD9C6
:10281000202E27D92024FA06DAD57A0503D4A3423C
:102820002DD0A6422BD00F9B102B32D0022B20D0C4
:10283000202CCDD030220C9B1B191A700134202C77
:10284000C6D04B46002BBFD17B070DD43B07BFD56D
:1028500020230C9A13550134BAE79C429FD21F2CB7
:1028600000D881E720249AE72B230C9A13550134D2
:10287000AEE7202CACD00C9B1B1901343AE0631E50
:10288000012C92D00F9A102A2AD0022A2FD01C0095
:10289000D0E7BB060ED4202C9AD00C9B1A19013419
:1028A00078231370C4E7BB060DD478230C9A012457
:1028B0001370BFE7202C00D18AE758220C9B1B190C
:1028C0001A700134B4E758230C9A01241370B1E74D
:1028D0000C9A603301241370ACE7202400265EE7D5
:1028E000023CBA06E9D40C9A12191C00D8E70C9ADB
:1028F0009246534462221A709AE7C04610B50028E7
:1029000000D110BD02F0FEFAFBE7C0460B0010B587
:10291000002802D049681B68984710BDF0B5DE4614
:1029200057464E464546E0B59BB09B46249B89469C
:102930009846259B0B900C924046424619009A46B9
:1029400001F0EFFC002800D0D8E0012240465146BB
:10295000774B524201F0E0FC002800D0CEE001228B
:1029600040465146734B524201F0C0FC002800D053
:10297000C4E0002200234046514601F0B7FC002885
:1029800000D0B9E1424653460A9209938023289A1F
:10299000DB001A400E92289A1A4201D10623269390
:1029A0000A9A099B1600134300D0C7E0289B002514
:1029B00000261B0500D49BE100230D93269A0D9B56
:1029C0009A4200DC9FE1D01A431E26938023289A66
:1029D000DB001A430023002728920D93279B002435
:1029E000BB4200D9DC1B0223289A1A400E92289A77
:1029F000134203D07B427B415B421C400D9B002B6A
:102A000007D00A9809992A00330001F006FC0A90C1
:102A10000991002200234046514601F067FC00283E
:102A200005D0802000068446099961440991289ABE
:102A3000414B0B9D13400493269B0A9A0293099BDA
:102A400003940092019349465B4628000C9A00F0DB
:102A50008BF90400002F62D0289B220098061F23C8
:102A6000C0179843631C984649465B466530A847A3
:102A70000D9B0025DA179C18DB0F9A465440013F46
:102A800001E0202D13D00AAA94461F23200063449E
:102A90000A2101355E1901F073F9303131702000DF
:102AA0000A2101F06DF926000400092EE9D805235A
:102AB0000693002304930A330393534605970B9F11
:102AC000029312AB009342465B464946380001959B
:102AD000FFF72EFE0E9B0400002B20D00C9BC51A86
:102AE000279BAB421BD91E0022005B464946202093
:102AF0000135B8470134AE42F6D810E0289B424673
:102B00000493279B49460393269B0B9802935346B5
:102B1000009201935B460C9A00F026F90400200015
:102B20001BB0F0BCBB46B246A946A046F0BDC046AD
:102B3000FFFFEF7FFFFFEFFFFFF7FFFF734B099FE3
:102B40009C467800400D604401F0FEFB704A714BDA
:102B500001F081FB704A714B01F056FB3B03704A58
:102B60001B0B1A4304000D00300011006D4B0022B6
:102B700001F041FB6C4A6D4B01F06DFB02000B0054
:102B80002000290001F040FB01F0F6FB0D9001F060
:102B9000DBFB674A674B04000D0001F05CFB002281
:102BA000654B01F031FB01F0E7FB644A0600644B22
:102BB0002000290001F04FFB040030000D000F96AB
:102BC00001F0C2FB5F4A604B01F045FB02000B00C5
:102BD0002000290001F00FFB02000B0006000F008F
:102BE00001F039FB320004000D003B0030003900D9
:102BF00001F00AFB002210901191544B2000290093
:102C000001F00BFB0022524B01F0FEFA02000B0018
:102C10002000290001F001FB00224E4B01F0F4FAE4
:102C200002000B002000290001F0F7FA0D008021BE
:102C3000040032003B000020C90501F0DCFA02006C
:102C40000B002000290001F0DFFA02000B001098B1
:102C5000119901F0E2FA0022314B01F0D5FA3E4B16
:102C60000F9C9C4664440022230501F0F4FA050001
:102C70000E0002000B000A98099901F037FB0028AA
:102C80000AD00D9B2800013B31000D930022304BF0
:102C900001F0C3FA05000E00C6270D992B00633121
:102CA0008F42BF4128997F420437090500D495E639
:102CB000334300D182E6099C284A2100284B0A9818
:102CC00001F022FB002808D000222100254B0A98A1
:102CD00001F00CFB002800D070E6269B002B00D1F1
:102CE0007CE60E9B5A1E9341269AD31A269375E6CC
:102CF000002304270D9371E643460A9380231B06A5
:102D00005344099342E6002326935FE601FCFFFF4C
:102D1000FB799F501344D33FB3C8608B288AC63FCA
:102D20000000F03F0000F83F61436F63A787D23F88
:102D300071A379094F930A400000E03F1655B5BBD7
:102D4000B16B0240EF39FAFE422EE63F00002C4004
:102D50000000244000001840FF0300002D431CEB3E
:102D6000E2361A3F80842E41F0B54E46DE46574685
:102D70004546E0B597B09946209E219F229B834609
:102D8000984607910C923B0032003000390001F068
:102D9000C8FA002800D0A9E1012230003900CA4B4E
:102DA000524201F0A3FA002800D0E1E001223000F5
:102DB0003900C64B524201F0AFFA002800D0B7E00C
:102DC000002230003900C24B01F0A6FA002800D0E2
:102DD00099E0002230003900BE4B01F087FA00284C
:102DE00000D090E0002200233000390001F07EFA8C
:102DF000002800D0B1E000230D93249B5B0501D493
:102E00000623984608AB9C461722002430234146EF
:102E1000624404E0013413550139202C01D0092902
:102E2000F8D888463000390001F0A6FA4346DA00A7
:102E3000A94B05009B181A685B680892099301F07A
:102E400083FA02000B003000390001F0D4F9089A2F
:102E5000099B01F000FA0A900B9101F0B1FA824649
:102E600001F06EFA02000B000A980B9901F0C3F909
:102E700000229A4B0A900B9101F04EFA002800D1E3
:102E8000C0E001239C46E244504601F059FA02009A
:102E90000B000898099901F02FFA002802D00023AE
:102EA0009A4601354346002B6AD008AB17269C464C
:102EB00008956644554614E001235B4243440A21C9
:102EC00028009A4600F05CFF013430313719397020
:102ED00028000A2100F054FF092D00D8D0E0D04688
:102EE0000500202CE8D10EAB98460323249A13400A
:102EF000012B00D196E02023249A01930392239A78
:102F0000434602921EE0249B58460493239B00965E
:102F10000197039343460C9A029307994B46FFF798
:102F2000FDFC17B0F0BCBB46B246A946A046F0BDBA
:102F3000249B5B070ED40322694B249901920391D1
:102F400023990291009358464B460C9A0799FFF734
:102F5000A1FBE6E70422634BEFE73B0032000020D1
:102F6000002101F048F9012306000F000D9344E70A
:102F7000249B0393239B0293042301935A4BE1E781
:102F8000280001F0E1F902000B003000390001F0E7
:102F900032F9524B002206000F0001F0A7F90EABE8
:102FA000984600280AD10022300039004B4B01F02E
:102FB000B3F9002802D1EB0700D50135202C94D0BD
:102FC00008AA94461723280063440A2101341E19D5
:102FD00000F0AEFE3031280031700A2100F0A8FE6A
:102FE000051EEBD10323249A1340012B1BD0202C68
:102FF00000D180E70D9B002B35D02D224146631C6C
:103000000A5579E700220A980B99344B01F06EF9C2
:10301000002800D046E75346002B51D101239C469F
:10302000E2443FE72024239B002BE0D00D9B002BA4
:1030300003D1249A0C33134202D0239B013B2393E8
:10304000239BA342D3D908AB9C461722302362446A
:10305000202C00D14FE72399013413558C42C6D060
:10306000202CF8D147E7249B5B0724D4249A230023
:10307000120700D440E72022414601330A553BE7BE
:103080005746089D202C00D12DE7220030214046D4
:10309000002F09D00132B154202A00D123E7D343B5
:1030A0001B191B18002BF5D10EAB98462E23414659
:1030B000541C8B5482E72B224146631C0A551BE7A4
:1030C000DB0700D4EEE6A9E7FFFFEFFFFFFFEF7F8E
:1030D00065CDCD4165CDCDC168A900100000E03FB0
:1030E0006CA7001070A700107CA70010249B03930E
:1030F000239B029303230193004B23E778A700103F
:10310000F0B5DE464E4657464546E0B59FB01C003A
:10311000289B91460993C94AC94B8B4608901A606F
:10312000002900D118E2002320789A46002800D117
:103130001AE226001D005C460AE02A006F1C4B467E
:10314000089D2100A8473D0001363078002870D046
:103150002528F2D110239B46083B9A46043B98460B
:10316000023B00219C46721C107816000300203B95
:10317000DBB2102B03D8B34F9B00FB589F460300D4
:10318000303B092B32D900230A932A2868D0002328
:1031900098462E283ED00300683BDBB2122B1CD889
:1031A000A94A9B00D3589F46012301321943DBE70C
:1031B000634601321943D7E7434601321943D3E747
:1031C0005B4601321943CFE7534601321943CBE73F
:1031D00080235B007078194301360300253BDBB286
:1031E000532BAAD8994A9B00D3589F460027030027
:1031F000B800C01901364000C018337830381A00C2
:10320000303A0700092AF3D90A901800002398469B
:103210002E28C0D180237078DB0019430300303B97
:10322000721C092B00D8A1E12A2800D1B2E11600B6
:10323000B1E7A346AA462C00D14503D801235B423F
:103240004B449A464B46524659460020089DA84793
:1032500020001FB0F0BCBB46B246A946A046F0BD58
:10326000099B40CB0A96002E03DB50780993561C2D
:103270008DE72838014370420A9009935078561C14
:1032800085E7782800D1DFE1582800D14CE26F288B
:1032900000D14FE3622801D100F030FC10230A0076
:1032A0009A430B92692801D000F0A9FC0A230C93E1
:1032B0004B0500D5D0E10B9A802311009B001940EB
:1032C0008B461A4200D0A1E2802311005B00194016
:1032D0008A461A4200D0B6E313005B0600D5EDE241
:1032E000130009991B0601D400F076FC08C91BB233
:1032F000D8171A18424092B209919346DA0F1292E7
:10330000002B09D1802310220B99DB000B40914345
:103310000B91002B00D0E4E20B9A6123920600D5BA
:1033200041230EA91F228C46DBB262440A3B5F4652
:103330001395A34655460C9CB2460D9316000AE021
:103340003033DBB201357355A74200D2EDE2202DB8
:1033500000D1EAE207002100380000F011FDCBB2F5
:103360000929EDD90D9A94466344DBB2EAE780233C
:103370009B007078194301362FE77078682800D1D8
:10338000CDE180230136194327E770786C2800D1FE
:10339000BFE180235B00194301361EE7462800D1B8
:1033A0009BE10722099B0491073393430A9A190072
:1033B0000392424602920CC9089800920193099127
:1033C0002A004B462100FFF7CFFC01360500BCE682
:1033D0002A006F1C4B46089D21002520A847013676
:1033E0003D00B2E68B0700D4ADE1099B2A009A4666
:1033F0006B1C9846534601CB21009A46089F4B46CA
:10340000C0B2B8470A9B9C466544012B00D886E2AF
:10341000089B4746B04626004C4699463A00230092
:10342000013731002020C847AF42F7D1A1465346AB
:10343000340046460993013687E6C0460131001044
:103440002C11002084A70010C8A7001014A8001099
:10345000099B04CB9B4643460992002B00D1C6E052
:1034600013789C46002B00D1BDE34346013B099AEB
:103470000133D0180A9F130001E0834203D05A7829
:103480000133002AF9D1099A0A979B1A0B938023DA
:103490000A00DB001A400C92194204D00B9B4345F2
:1034A00001D943460B9302231A000A400D920B42A6
:1034B00000D187E16046002800D168E10C9B002B19
:1034C00000D10DE1A844C246099B57465B1B9846B4
:1034D000089BB2462A0026004C46994609E0230084
:1034E0003100551CC8474346585D002800D126E1ED
:1034F0002A009742F3D1A1463D00340056460D9B69
:10350000002B00D043E15B46013609931DE6099B81
:103510001A0008CA9246002B48D0212211438B463C
:103520000EA884461F216144099500220F27A44656
:103530000D0002E0202A0CD00B003C001C402000B3
:103540003730092C00D807380132A85419090F2B3D
:10355000F0D86446099D32E0DC4B207808930023C4
:103560009A46002800D0E4E5002465E643460600BC
:103570000A9F9800C0180132400080191678030095
:1035800030003038303B0928F3D930009846160017
:103590000A9700E6099B023604CB9046D243404688
:1035A000D2171040804609933078F4E510220800C5
:1035B000904311321043834600224905B0D55B4643
:1035C0000693082305934346049310230393002393
:1035D000029316AB019200932A004B4621000898F3
:1035E000FFF7A6F85346050001360993ADE51378B9
:1035F0009C46002B00D1F7E202235B4237E72023F1
:1036000002009A43472A04D180231B011943022355
:103610009843452801D1202319430722099B04918F
:10362000073393430A9A19000392424602920CC947
:1036300008980092019309912A004B462100FFF758
:103640006DF90136050080E510230C930C230A0068
:103650009A430B924B0503D501230B9A9A430B9285
:10366000692800D127E6642800D124E60B9A80233C
:1036700011009B0019408B461A4200D066E180235E
:1036800011005B0019408A461A4200D039E213004B
:103690005B0600D53CE113001B0600D4A6E2099BA3
:1036A00004CB1204120C934609935B46002B00D006
:1036B0009AE10B9A1033110099430B91520500D4F3
:1036C00092E100239A460B9B06930A9B059343467F
:1036D00004930C9B039300230CE12023194360E621
:1036E000099B0A9A5B1B98464B4691461F00B246BF
:1036F0002600089C2A003B003100A04743460135C4
:10370000585D0028F6D14A463400B94656460A921A
:10371000F5E6C0239B00B078194302365DE5C0236F
:10372000B0781943023658E50C230A009A43143343
:103730001A43103B0B920C934B058DD496E7A14690
:1037400034005646DBE60A9A012A00D853E26B1E83
:103750009F18089BB04626004C4699462A00230035
:10376000013531002020C847BD42F7D1A1463400C1
:103770004646099B3A0001CB210098467D1C4B46EA
:10378000089FC0B2B847434601360993DDE40B9B5E
:103790000A9AA8469A4200D8B5E694466544ED1ABE
:1037A000089B4746B04626004C4699463A002300FF
:1037B000013731002020C847AF42F7D1A14634007D
:1037C0004646A0E60B9A0A99531C914200D814E28F
:1037D0004B199B1A1F00089BB24626004C4699467F
:1037E0002A002300013531002020C847BD42F7D10F
:1037F0000A9BA14601330B93099B34001B78564664
:103800009C466046002800D058E67CE60722099BCB
:1038100007339343013294469C4462465F680992A1
:103820001A68FB17109311931098119903005340D5
:103830000E930B007B400F9394460E9A0F9B121A27
:103840008B410E920F93FB0F6246129300233A4373
:103850009B463DD00B9A6123920600D5412300225E
:10386000DBB20EA90A3B8C4692460D9343461F32AB
:1038700062441395159655460E9E0F9FA24690469C
:103880000C9C14930CE03032D2B2434601355A55A9
:10389000BB4500D18AE1202D00D18AE106000F004E
:1038A000220000233000390000F0A8FAD2B2092A21
:1038B000E9D90D9B9C466244D2B2E6E7FF23099901
:1038C00004C913401A00099117E5C046912600105B
:1038D0000B9A1033110099430B915205BAD500236E
:1038E0009A460B9B06930A9B0593434604930C9BB5
:1038F0000393129B02935346019316AB2A00009345
:1039000021004B460898FEF713FF013605001CE422
:10391000FF22099B02CB11408B460993C5E6534613
:10392000454609930136FFF710FC56465C46AA4609
:10393000139DD6E708230C930B910B99642800D0B4
:1039400084E60B9B5B0500D586E6B4E40722099B61
:1039500007339343013294469C44624609921A68A5
:103960005B6810009B4613005A46134307D10B9A1D
:103970001033110099430B91520500D5A1E60B9A23
:103980006123920600D541230022DBB20EA90A3B37
:103990008C4692460D9343461F3262445F46129511
:1039A000A34655460400B24690460C9E13930DE084
:1039B0003032D2B2434601355A550023BB4200D1C2
:1039C00000E1202D00D100E104000F0032000023AF
:1039D0002000390000F012FAD2B2092AE8D90D9B72
:1039E0009C466244D2B2E5E70B9A6123920600D569
:1039F0004123DBB20EA90A3B1F228C460D93230004
:103A000062445C461295170055469B46B2460C9E92
:103A100008E03033DBB201357B55B4420ED3202DA4
:103A20000CD004003100200000F0AAF9CBB2092923
:103A3000EFD90D9A94466344DBB2ECE756465C46F8
:103A4000AA46129D3FE6099B1A0008CAD91713928D
:103A50005A184A409246DA0F1292002B08D180235E
:103A600010220B99DB000B4091430B91002B2BD1C3
:103A70000B9A6123920600D541230EAA1F27944674
:103A8000DBB20A3B0D9567445D460993A346544655
:103A9000B2460C9E08E03033DBB201357B55B442B0
:103AA0000ED3202D0CD004003100200000F068F966
:103AB000CBB20929EFD9099A94466344DBB2ECE70B
:103AC00056465C46AB460D9D0B9B2A0006930A9B0F
:103AD00021000593434604930C9B08980393129B83
:103AE000013602935B46019316AB00934B46FEF7FB
:103AF0001FFE139B05000993FFF727FB02230C937E
:103B00001AE7099B04CB92461293002A08D180231E
:103B100010220B99DB000B4091430B91002B2BD112
:103B20000B9A6123920600D541230EAA1F279446C3
:103B3000DBB20A3B0D9567445D460993A3465446A4
:103B4000B2460C9E08E03033DBB201357B55B442FF
:103B50000ED3202D0CD004003100200000F010F90D
:103B6000CBB20929EFD9099A94466344DBB2ECE75A
:103B700056465C46AB460D9D0B9B2A0006930A9B5E
:103B800021000593434604930C9B0898039300235C
:103B900002935B46019316AB00934B46FEF7C8FDBC
:103BA000129B050009930136FFF7CFFAB44200D803
:103BB00071E6149B54460E960F97AA469846159E9A
:103BC000139D8EE6A64200D8FBE6139B5646984608
:103BD000AA465C46129D76E508C9D8171A184240D5
:103BE0000991FFF78AFB00230B9350E4099B04CB58
:103BF0009346099359E52F00BBE50B9301E6063B7D
:103C00000C939AE60EB4012210B585B007AC08CC2F
:103C100001000094524204480394FFF771FA05B082
:103C200010BC08BC03B018478926001000B585B049
:103C30000391012102900093034813004A4202A914
:103C4000FFF75EFA05B000BD0D2900100FB410B5E6
:103C50000C4984B006AA08CA0C680392002C0BD049
:103C6000009201220848524202A9A047012004B054
:103C700010BC08BC04B01847180001F08FF90020F0
:103C8000F5E7C0462C110020FD28001010B5094AA8
:103C90000300146884B0002C08D00122009106486B
:103CA000524203A9A047012004B010BD01F076F9EB
:103CB0000020F9E72C110020FD2800100148042104
:103CC000014B184710030020ED3C0010142310B5E1
:103CD0000100188804331B88984710BD162310B5BF
:103CE0000100188802331B88984710BDF8B5474675
:103CF000CE4680B50F1E19D0142399460433040014
:103D00000025012698464B461888434621681B88A3
:103D1000984701C4431E9841013540420640AF42D6
:103D2000F1D13000C0BCB946B046F8BD0126F8E775
:103D3000124A936F9B0815D29066D166002905D070
:103D4000FFE7FFE7FFE7516F106F704704B5802171
:103D50000906C2175140002800D0C84306F04CFCA9
:103D6000002104BDF0B5146E556E576F166FFFF746
:103D7000E3FF1466556657671667F0BD000000D074
:103D8000114A936F9B0813D210665166002905D023
:103D9000FFE7FFE7FFE7516F106F704704B500289A
:103DA00001D00020C04306F027FC002104BDC0461E
:103DB000F0B5146E556E576F166FFFF7E5FF14667A
:103DC000556657671667F0BD000000D094464A4A12
:103DD000926F9208624601D228E0C046F0B5464E86
:103DE000346E756E776F366F00F020F89446424A55
:103DF00014665566576716676246F0BD94463E4A9C
:103E0000926F9208624601D254E0C046F0B53A4E35
:103E1000346E756E776F366F00F04CF89446364A04
:103E200014665566576716676246F0BD002B24DBA3
:103E300011D000293EDA00B5C943404200D101311A
:103E400000F038F8C943404200D10131DB4352420F
:103E500000D1013300BD002AEBD1002801D1002997
:103E600005D00020C90FC90701D1C043410800B5E2
:103E700006F0BAFB0022002300BD00B500290ADBD2
:103E8000DB43524200D1013300F014F8C9434042F1
:103E900000D1013100BDC943404200D10131DB43B3
:103EA000524200D1013300F005F8DB43524200D109
:103EB000013300BD002923D1002B18D1002A0CD0DA
:103EC000BC460D4F38667A6600210023FFE7FFE706
:103ED000FFE77A6F386F67467047002801D00748C0
:103EE000010000B506F080FB0022002300BD0200A7
:103EF0000B00002000217047000000D0FFFFFFFFF3
:103F0000002B00D0BFE0130C28D1002AE7D080B4EA
:103F1000114F39667A66FFE7FFE730B4040C7B6F18
:103F2000396F1B0423433B667A66FFE7FFE7FFE731
:103F3000C04684B27B6F3D6F1B0423433B667A66A9
:103F4000FFE7FFE7C04600232C042D0C7A6F386F83
:103F500000196941B0BC7047000000D0F0B594462C
:103F60000025140E01D112020835140F01D11201DF
:103F70000435940F01D192000235D40F01D15200C3
:103F80000135D40B0134254F7C66254C3C660E0C64
:103F900093B2FFE7FFE7FFE73C6F6643360C77031A
:103FA000BE467343DF0B5B04C01AB941130C734365
:103FB000DB18C91ACE086643360CB64493B2734375
:103FC0001F0F1B01C01AB941130C73431F0B1B05B4
:103FD000C01AB941860D8F023E436643360C092D47
:103FE00024DB520A7243801A7703460A6643360C72
:103FF00016235B1BDE40DF40BF1964466643821B0D
:104000007046043506330100D940A840C01900D3DA
:104010000131A24206D20023F0BD0000000000D012
:10402000FFFFFFFF121B0130F3D3F1E709277F1BCE
:10403000FE406446A2B27243801A00D20139220CBB
:104040007243130C1204821A99410B007046043516
:1040500013370100F940A840801900D30131002B2B
:1040600002D1A2420AD2F0BD013000D30131121BAD
:10407000FAD2013BF8D1A24200D2F0BD013000D308
:104080000131121BF7E7F0B51C0C00D080E00CB436
:1040900000251C0A04D11B02160E334312020835F8
:1040A0001C0B04D11B01160F3343120104359C0B6A
:1040B00004D19B00960F334392000235DC0B02D1F2
:1040C00092185B4101351C00971864410134464F3A
:1040D0007C66464C3C660E0CFFE7FFE7FFE7C046F8
:1040E0003C6F6643360C7703BE4697B27743C01BDE
:1040F00000D20139C01B00D201399FB27743C91BDE
:10410000C91B170C77437E04FF0B801BB941CE08F7
:104110006643360C0C2D33DBB644120B1F053A43B5
:104120001B0B97B27743C01B00D201399FB2774374
:10413000C91B170C77433E043F0C801BB941860D09
:104140008F023E43664329277F1BFE400C3D774686
:10415000AF40BF1930BCA2B2ABB272437343801AF6
:104160009941220C7243130C1204801A99410200E7
:104170000B000137001BA941F9D2781E0021F0BDC8
:104180000C277F1BFE4077467F0BAF40FF19E0E70F
:1041900000245D1C07D0144F7D663966FFE7FFE7FA
:1041A000FFE7FFE73C6F95B29EB265436643401B55
:1041B000B141150C1E0C6543664336042F0C3E437B
:1041C0002D04401BB141994204D202000B00200093
:1041D0000021F0BD01D19042F7D3801A99410134FA
:1041E0009942F2D3F6E70000000000D0FFFFFFFF86
:1041F00048404140484018B41B4B5B68FC46019363
:1042000008BD04DF2745001018B4174B1B68FC4697
:10421000019308BD00DF314500109446134A926FA8
:10422000920809D2624618B40F4BDB68FC46019332
:1042300008BD0CDFE94700100C4AF0B5146E556E4E
:10424000576F166F6246FFF7EEFF084A1466556611
:1042500057671667F0BD18B4034B9B68FC46019383
:1042600008BD08DF8D460010300E0020000000D091
:10427000FFB550404240504059404B40594000E04B
:10428000FFB5154F4C00640D03D0BC4204D10C03A4
:1042900014D80020090D09055C00640D03D0BC4250
:1042A00004D11C030AD800221B0D1B0501264B401C
:1042B00009D44B4003D58B4200D18242FFBD9942C5
:1042C000FCD19042FFBD0B43DB1803431343F5D0F1
:1042D000C9434918FFBD0000FF07000000B5FFF704
:1042E000CFFF01D0002000BD012000BD00B5FFF7C9
:1042F000C7FF804100BDC04600B5FFF7C1FF01D92F
:10430000002000BD012000BD00B5FFF7B1FF01D9BD
:10431000002000BD012000BD00B5FFF7A9FF8041CE
:1043200000BD012040054A00121804D85A00121896
:1043300001D800207047012070470020704700001E
:104340000021002805D17047C1174840401AFAD013
:10435000C90713B5064B1B6898470CBC441CA24008
:104360001005120B0349091B09051943114310BD20
:104370003C1300201F04000010B54C00620D802388
:10438000D218DB00D21A5B057E2A10DD9E3A13DAC2
:10439000CC170903490819435242D1406400013443
:1043A0001532202A05DAD0400843604310BD0020B2
:1043B00010BD0846604310BDC80FC018013810BDBD
:1043C00018B4044B5B6AFC46019308BD24DF99498D
:1043D00000100000300E002018B4044BDB6DFC46CA
:1043E000019308BD5CDFA54A00100000300E0020DC
:1043F000C94211D300B549004908002200F018F85D
:10440000002904D4002240428A41114600BD802187
:104410000906002000BD000018B4044BDB6EFC460A
:10442000019308BD6CDFA74900100000300E00208A
:1044300018B4044B9B6FFC46019308BD78DFC34959
:1044400000100000300E002018B4044BDB6FFC4657
:10445000019308BD7CDF314A00100000300E0020BF
:10446000132370B51D78012D15D010DD1C48FFF702
:1044700035FC1C4C01008022200000F02BFC022D9A
:1044800006D01948FFF722FC184B186070BD154C78
:10449000174BA364F5E7164B124C23606360A360CF
:1044A000E36023616361A361E36123626362A362EA
:1044B000E36223636363A363E36323646364A364CA
:1044C000E36423656365A365E36523666366A366AA
:1044D000E36623676367A367E367A364D1E7C04626
:1044E00053440000300E00204C3300003C130020E9
:1044F000F544001007B5604601880A0A0230DF2A39
:10450000FAD1C9B2820804D302884088000410435B
:1045100000E00068014A5050039007BD300E0020B3
:104520000FB403BC0CBCF0B50124E407634000E009
:10453000F0B50C0DCF0F661E3605891B640503D33D
:10454000C943404200D30131640D03D0661CF60A12
:1045500007D0E41B00207F00791C89078912803C6A
:1045600024031D0DDF0F6E1E36059B1B6D0503D347
:10457000DB43524200D301336D0D03D06E1CF60AAB
:1045800007D0ED1B00227F007B1C9B079B12803D08
:104590002D032F1B661B58D4A446202E46DA203745
:1045A0001400BC401D00BD40F24033412A43801836
:1045B0005941CB0F05D0C943C0430022644250414A
:1045C000514162464D0D28D10D0D07D100281FD055
:1045D000241940414941013A0D0DF9D0640006D338
:1045E000013000D30131002C01D140084000013AD4
:1045F0000BD4941CE40A04D112051144DB071944BE
:10460000F0BDD907204B194300E0D9070020F0BDC9
:104610000029DDD1002CDBD1F0BD0132C6074008F6
:10462000CD0728434908002EE1D0D9E73C2E29DAEE
:10463000203E40371400BC4000D00124F240144317
:104640001A00BB401C43D317ACE7AC46202F08DA56
:1046500020360400B4400D00B540F84039412843ED
:10466000A5E73C2F0CDA203F40360400B44000D0D0
:104670000124F84004430800B1400C43C117EAE7A5
:1046800010001900002494E70000F07FF0B50C0D35
:10469000661E3605891BE60A6405640D02D0651C9A
:1046A000ED0A04D0002001210905803C2403A44622
:1046B0001C0D671E3F05DB1BE70A6405640D02D075
:1046C000651CED0A04D0002201231B05803C240355
:1046D0007740644497B484B296B27443070C7E4327
:1046E000150C6F4380B26843361802D301200004D2
:1046F0003F183004350C00197D41844688B29AB2C7
:1047000050430C0C62431F0C7C438EB27E439219C3
:1047100002D301263604A4191604170C3618674173
:1047200001BC81B29AB25143040C62431B0C5C433E
:1047300080B25843121802D3012000042418100438
:10474000130C401863412D185E410020474106BC00
:1047500088B293B258430C0C6343120C544389B291
:1047600051435B1802D301210904641819041A0C7F
:10477000091862416D1856410020474118BCF902E2
:10478000720D1143F0026A0D1043ED020A0D03D1C0
:104790006D1940414941013B124E9B1B7600B342CB
:1047A0000ED26D0007D301300026714166463543B5
:1047B00001D1400840001B05C918E4072144F0BDA1
:1047C0000BDA013306D1013004D101314F0D01D094
:1047D0004908F2E7E1070020F0BD0136310500206D
:1047E000EBE70000FF030000F0B51C0D671E3F055E
:1047F000DB1BE70A6405640D02D0661CF60A04D0D0
:10480000002201231B05803C2403D0252D06002611
:10481000F6432E661E096E66CE0FF619B4464900A1
:104820004F0D02D07E1CF60A03D000200021403F2D
:104830003F033E1BB600B444013F7F05C91B490836
:104840002E6F013676089C02950D25437543ED13B6
:104850007543AD1301356D10F603761B0CB4CC0215
:10486000450D2C43A2B2B3B25A43270C7B43350CFF
:104870006F43A4B26C431B1902D3012424043F19D3
:104880001C041D0CA4187D4124196D41009A91B29D
:10489000ACB26143170C7C432B0C5F4392B25A437A
:1048A000A41802D301221204BF182204230C5218A8
:1048B0007B41019C6C431B19520ED9010A434401F0
:1048C000A01A81B2B2B2514303145A43360C734357
:1048D00087B27743D617D21900277E4136049B1939
:1048E0001704160C7F185E417316ED18F3010026AD
:1048F00080337541A90F06D16400690AE8055B0A97
:10490000184309D22FE00422944480337541A90A48
:10491000A8059B0A184326D3404149412404009A24
:10492000019B0D005543641B4343E41A95B286B2C4
:104930007543170C7E43030C5F4392B25A43B6187B
:1049400002D301221204BF183204330C52197B41E6
:1049500052429C41002C02D40022013051414008B7
:10496000CA071043490802B06246D7079210084BA5
:10497000D218084B9A4203D212058918C919F0BD02
:104980000020002A01DC3900F0BD01331905F5E7EC
:10499000FD030000FE070000002200B5203200F0F9
:1049A00010F8080000BD002200B500F00CF8CA178E
:1049B0009A4200D100BDD8430121C907414000BD42
:1049C00000220B150AD410B5944600F0A7F8141471
:1049D000013400DA0021CB17144C204700200021BD
:1049E00070476244343A0CD40C2A07DA0400914030
:1049F000904052422032D440214310BDD843D94385
:104A000010BD203207D40C4694405242203211414E
:104A1000D040204310BD0800C917203203D45242B1
:104A20002032104110BD1800190010BDE3490010DC
:104A30004A00520D144BD21A13DDFF2A1EDAD2059A
:104A4000CB0FDB071A43C300400F0903490A084391
:104A500010435B0001D301D0013070474308FBD203
:104A6000704702D0C80FC00770470A031213013203
:104A7000F8D1420F072AF5D1012200E0FF22C80F2A
:104A800000028018C00570478003000000210A0062
:104A9000002104E000210A00C11704E000220023E5
:104AA00006E0C0460022CB1758405940C01A994131
:104AB00030B5184CA21A002903D1010010D00020F3
:104AC000203A4C1512D104D2013A001849414C0D3C
:104AD000FAD3114CA24204D212058918DB07C91877
:104AE00030BDD243520D00200021F5E703D4013A36
:104AF00000184941FBD50B324405C00A4D05284337
:104B0000C90A640003D0002460416141E1E7E0D3B9
:104B10004408F8E732040000FE0700000A0DCC0F3D
:104B2000531E1B05C91A520503D3C943404200D383
:104B30000131520D03D0531CDB0A07D0121B002099
:104B40006400611C89078912803A1203014BD21A52
:104B500070470000FF03000051434343C9188C46CF
:104B6000110C83B24B4310B4040C614392B280B277
:104B7000504362431C041B0C001910BC5941130420
:104B8000120CC0185141614470470000132310B546
:104B900012481C78FFF7A2F80100012C0AD003DDAF
:104BA00080220F4800F096F80E48FFF78FF80E4B62
:104BB000186010BD0A4C5422200000F08BF80B4BFB
:104BC0006365A365E36523666366A366E36623679F
:104BD0006367A367E3672362E361E5E75346000089
:104BE000300F00204C3300003C130020F14B00102C
:104BF00007B5604601880A0A0230DF2AFAD1C9B235
:104C0000820804D3028840880004104300E0006852
:104C1000014A5050039007BD300F002070B50400CA
:104C20000A4E300005F0F8FC200000F06FFC050093
:104C3000300005F0D1FC002D05D0054B2C199C420D
:104C400001D8280070BD0348FDF700FDF80C0020D6
:104C500000000420B8A9001070B505000C000B4E30
:104C6000300005F0D9FC2800210000F035FF0500D8
:104C7000300005F0B1FC002D05D0054B2C199C42ED
:104C800001D8280070BD0348FDF7E0FCF80C0020B7
:104C900000000420B8A9001070B50400054D2800DC
:104CA00005F0BAFC200000F03BFC280005F094FC65
:104CB00070BDC046F80C002001480421014B184784
:104CC00020030020ED3C0010014B1B68184700003A
:104CD00020030020014B5B681847000020030020E0
:104CE000030010B5080011001B68984710BDC046AE
:104CF000F0B546464F46D646C0B5437D80460E00C9
:104D00001700002B46D0002A3FDD4B1E9946244B4E
:104D10000125002400209A460DE04B461B5D0D3B0B
:104D20005A425341325DDBB20A2A0BD02B000134C8
:104D300001359F421ADD002CEFD14346325D1B7DC9
:104D40000A2AF3D1002BF1D1A04204DA4346211AFA
:104D50001B6830189847434650461B680221984705
:104D6000013428002B0001359F42E4DC874204DD3A
:104D70004346391A1B6830189847F619013E3378B4
:104D80000D3B5A42534142461375E0BCBA46B14608
:104D9000A846F0BD0368110030009847F5E7C0460B
:104DA00034AA0010F0B5C6460C000968060000B52C
:104DB000802906D04B1C23606418267180BCB8463D
:104DC000F0BD0F4B1D68002D16D0231D98460D4FCA
:104DD00002E02D69002D0FD02B68002BF9D03B6825
:104DE000002B01D0AB42F4D1280041462268FFF7E6
:104DF0007FFF2D69002DEFD101230021DBE7C046A5
:104E00000811002014110020F0B5DE4657464E462A
:104E10004546E0B585B017001C0006000D00FCF704
:104E2000E9FD0023304A12184B41002B58DB2F4973
:104E300008008A4605F0E8FB01906B1C03D13000A6
:104E400001F03CF80500002C25D1294B9846294B50
:104E50001C68002C15D0002F20D1274F02E02469B8
:104E6000002C0ED02368002BF9D03B68002B01D01A
:104E7000A342F4D120002A003100C0472469002C4D
:104E8000F0D1019B002B27D105B0F0BCBB46B24648
:104E9000A946A046F0BD194B9846D8E7164B99464F
:104EA00002ABDF1D0A239B4602E02469002CE8D0F8
:104EB0002368002BF9D04B461B68002B01D0A3427E
:104EC000F3D12A0031002000C0475B46012239009F
:104ED00020003B70C047E8E7504605F07DFBD3E774
:104EE0000122074B5242A2E740420F00000D002072
:104EF000F14C00100811002014110020E14C0010AA
:104F0000FFFFFF7FF0B5CE46474680B583B06B46C6
:104F10000600DD1D2870FCF76DFD00231A4A1218EB
:104F20004B41002B2BDB19490800884605F06CFB30
:104F3000174B81461C68002C14D0164F02E02469E0
:104F4000002C0FD02368002BF9D03B68002B01D038
:104F5000A342F4D1200001222900FFF7C9FE2469F1
:104F6000002CEFD14B46002B05D1300003B0C0BC64
:104F7000B946B046F0BD404605F02EFBF5E70122EC
:104F8000054B5242CFE7C04640420F00000D0020C3
:104F90000811002014110020FFFFFF7F70B50400EE
:104FA00000F08CFF00230100050001222000FFF724
:104FB0002BFF084B1C68002C06D06368002B05D023
:104FC00098472469002CF8D1280070BD2469002C72
:104FD000F3D1F9E7081100200A4A1368002B05D124
:104FE0000CE01A001B691032002B07D09842F8D150
:104FF000002902D103691360016170470029FCD0C8
:105000001060FAE708110020F0B5CE46474680B59B
:10501000A5B004000D00FCF7EDFC00232A4A12188D
:105020004B41002B49DB294E300005F0EDFA0023FF
:105030000700039322002B00254803A9FEF7F6FD85
:10504000039B8046002B14D1224B1C68002C06D0F9
:105050006368002B0BD098472469002CF8D1002FEF
:1050600027D1404625B0C0BCB946B046F0BD246942
:10507000ECE7184B1D689946002D22D0164C02E033
:105080002D69002D11D02B68002BF9D02368002B3F
:1050900001D09D42F4D1039B28001A0004A901937A
:1050A000FFF726FE2D69002DEDD14B4603951C68B8
:1050B000CCE7300005F090FAD3E70122074B5242CB
:1050C000B1E70395CBE7C04640420F00000D00203A
:1050D000A54D00100811002014110020FFFFFF7FD4
:1050E0000FB400B583B004A901C90191FFF78CFF8B
:1050F00003B008BC04B0184710B500F0C5F8012093
:1051000010BDC046F0B50D1E15DD0E4B0D271A68FB
:105110000D4B4519D31859424B410C495B005E5E5B
:1051200020210478A64207D093691942FCD10130AE
:105130001460A842F5D1F0BD93691942FCD1176003
:10514000F2E7C0466C1300200080FCBF681300200B
:1051500030B504000D1E26DD002010211B4B013C44
:105160001A689369194219D1013093691942FCD127
:10517000136823548542F4D1154B1B68002B0CD0C7
:1051800050239363516B183B34320B401100802243
:1051900052010A431360002815D030BD0C4B1B6828
:1051A000002BEDD1F7E70A4B1B68002B0BD05022E8
:1051B0003821064B1B689A635A6B343311408022A6
:1051C00052011343196003204042E6E76C130020AC
:1051D00094100020064B10B51B68002B06D0002150
:1051E000044A12689163044A1068984710BDC0468B
:1051F000941000206C130020981000201D4BF0B577
:105200001A68C64698461C4B0E00D31859424B41AB
:105210001A4F14331C00050000B53B68002807D066
:10522000002B11D0164B3D601E6080BCB846F0BD0F
:10523000002BF7D0906300212000FBF7CDFE20006B
:105240001049FBF719FFEDE720000E49FBF7EAFED6
:1052500001212000FBF7C0FE4346502238211B6885
:105260009A635A6B34331140802252011343196000
:10527000D8E7C0466C1300200080FCBF94100020CB
:1052800098100020D55100100C4B10B51B780C4B1A
:105290000C4C1B780C4B022100202360FBF716FE00
:1052A00002210120FBF712FEE12120684902FCF7F0
:1052B0007DFE01210548FFF78FFE10BD1CB40010D4
:1052C00020B400106C130020004003403003002085
:1052D00010B5114C114B22689A4210D1104B6268E4
:1052E0009A420CD10F4BA2689A4208D100230E4873
:1052F0002360FEF7EBFC0021030000209847074BDA
:1053000000212360064B09486360064BA360FCF74D
:105310007BFB0023236010BD200D0020DE8116F0F2
:10532000299B72BD7ABE59D355420000400D03003F
:1053300003BDC04610B50400FBF7D0FFA04710BD69
:10534000D02202211206136D1942FCD0506540BFD5
:105350007047C046D0221206136DDB0704D401212A
:1053600020BF136D1942FBD0D0231B06986D7047E8
:105370008022054B520205491A600B681342FCD08B
:10538000034B1A607047C0460420014004000140EE
:1053900004300140F0B5040087B00F200E00170064
:1053A000FBF72CFE002105000F20FBF715FE002364
:1053B00000220092019301230293D02304960594C6
:1053C000002600240121022003971B06002C14D084
:1053D0001A6D1042FCD05C6540BF1A6D114203D1BA
:1053E00020BF1A6D1142FBD09A6DA2420AD000264E
:1053F0006C46B200A458E9E79A6D1A6D1142FBD1D0
:1054000040BFE5E70136052EF2D929000F20FBF752
:10541000E3FD07B0F0BDC0460B4B0C4A10B59342FC
:1054200001D201235B421900094A985004329B5073
:10543000084A094B0948CA50094B9A68044B9C46D4
:105440006144FFF7A7FF10BD0008042000000420FE
:10545000F407000035530010FC0700003153001022
:1054600000ED00E070B50B0C0024150C002B28D1CA
:10547000002D37D18BB291B2594300F05BF8051E75
:1054800019D00300083B5A6803239A43043A242A9C
:1054900013D80300132A0AD90460446008331B2A76
:1054A00005D98460C460242A25D00300103300226B
:1054B0001A605A609A60280070BD0021FFF704FC52
:1054C000F9E7002D11D1151C89B292B24A43ADB251
:1054D0009BB26B43110C5B18190C06D1190492B2E4
:1054E0001143CAE72B1C0D1CEEE700F009F80C2352
:1054F00000250360DFE70300046118334461D6E749
:10550000014B18687047C0464803002010B5034B94
:105510000100186800F00EF810BDC04648030020D6
:1055200010B5034B0100186802F014F910BDC04615
:1055300048030020F0B54E464546DE465746E0B5E6
:105540000D000B35060083B0162D22D8102900D986
:10555000B2E000F0B1FA102518230220CC4FFB185E
:105560001A005C68083A944200D1B5E003236268EF
:105570009A431300E268A168CA6091600122E318AF
:10558000596830000A435A6000F09EFA2000083043
:1055900095E007239D4300D58EE0A94200D98BE01A
:1055A00000F08AFAFC235B009D4200D2A7E1680A62
:1055B00000D18BE0042800D97AE138239846A80965
:1055C00080443930C100B24F79184C680839A14283
:1055D0000ED003239C4604E0002ACBDAE468A14203
:1055E00006D06246636893435A1B0F2AF4DD404697
:1055F0003A003C690832944200D178E003236168A4
:10560000994389460B00491B0F2900DD7BE17A6134
:105610003A610029B2DA80229200914500D30FE16D
:105620005909DA0801238B40D2007968D2190B435B
:1056300091687B60E260A1609460CC60012182107F
:105640009140994259D80B4205D103229043490019
:1056500004300B42FBD003239846C3009946B9445B
:10566000CC4682466346DC68A44507D12CE1002A7B
:1056700000DB35E1E468A44500D125E142466368DA
:1056800093435A1B0F2AF2DD01208046611905431E
:105690006560A068E5680837C560A86040461043AB
:1056A000F960B9604860CF6030008F60E25000F070
:1056B0000BFA2000083002E00C230020336003B016
:1056C000F0BCBB46B246A946A046F0BD80213F23B0
:1056D00040209846890076E7DC680230A34200D07B
:1056E00044E73A003C690832944200D086E7012141
:1056F0007B68821091409942A5D90323BC686268F7
:105700009A439146954203D8531B0F2B00DD89E045
:1057100023004B445F4A01935F4B93461B6812681A
:10572000EB18013200D13DE15C4A944663441B0B07
:105730001B0300933000009900F084FB03008046B7
:10574000013300D1FAE0019B834200D9F4E0544BCD
:1057500000981A009A461268030094465146634422
:105760000B6001991A00414500D151E15B461B686D
:10577000013300D156E1434601995B1A9A1853460A
:105780001A600723424641461A400192194200D14D
:1057900012E108239846881A424B009980444144FC
:1057A0009B1A5B1A1B051B0D0091300019009B46CC
:1057B00000F048FB431C00D150E14346C01A0300EF
:1057C0005B440093534652461B6801215B441360BF
:1057D00042464046BA60009A0A434260BC4200D149
:1057E00024E14A460F2A00D822E107200C3A8243DE
:1057F00060680140052011436160A118486088601D
:105800000F2A00D935E142464446526826490868C5
:10581000984200D20B6025490868984200D38FE077
:105820000B608DE00122290013431143651961606B
:105830003000BD606B6000F047F9200008303EE7A3
:105840005A0A042A72D9142A00D9C5E011005C3220
:105850005B31D20008235B429C46BA1894446346ED
:105860009A6803239846944500D19EE043465168C8
:105870009943494502D992689445F7D1D3689C462B
:105880007B686146A260E1608C60D460D6E6C04669
:1058900078070020800B0020801000200F100000EF
:1058A0005010002008100000781000207C1000200C
:1058B000142852D9542800D996E06E239846280B14
:1058C00080446F30C1007EE608239B46073BDC44E2
:1058D0009B46DA4443465246134200D0C2E64CE0AF
:1058E0000122E318596830000A435A60E368A2684D
:1058F000D3609A6000F0E8F820000830DFE62B0063
:10590000E80808332AE6012360191D4365607861C1
:105910003861C26082601A004B460A434260300020
:10592000E15000F0D1F820000830C8E69A091100D3
:1059300039323831D2008DE7BC4260D0BC68626831
:1059400003239A43531B954202D80F2B00DD69E7CE
:10595000300000F0B9F80020B1E65B23984680449F
:105960005C30C1002FE608235B429C46E1444B4675
:105970009B6801384B4500D098E043460342F2D182
:105980007B688B437B604900994200D9B5E60029CA
:1059900004D1B2E6042294464900E2440B42F9D015
:1059A00050465AE610330093C4E68910023B8B4000
:1059B00079680B437B6064E7009B300043445B42A3
:1059C0001B051B0D19009B4600F03CFA431C00D040
:1059D000F3E600239B46F5E6542A2BD81A0B110058
:1059E0006F326E31D20035E7AA235B0098422BD884
:1059F000DD3B9846E80B80447830C100E3E52C4B52
:105A0000009A9A461B689C46534662441A60ADE66B
:105A1000090500D0AAE60200BC684A4401310A43E5
:105A20006260F3E65B4642461A60AAE64446EDE64B
:105A300041608DE7AA2149008A4224D8DA0B11007F
:105A400078327731D20005E71A4B984224D87C236C
:105A50009846A80C80447D30C100B4E5009A019BB3
:105A600094464246083B63449B1A009300239B469E
:105A7000A8E621003000083101F06CFE5346BC68F6
:105A80001B686268C2E60B498A420BD89A0C110067
:105A90007D327C31D200DDE6FE217E237F209846D8
:105AA000890090E5FE227E219200D3E67B686AE7BA
:105AB000501000205405000010B5024801F04AFFC4
:105AC00010BDC0464C10002010B5024801F044FF44
:105AD00010BDC0464C100020030010B50A00034959
