:020000041000EA
:1000000000B5324B212058609868022188439860DF
:10001000D860186158612E4B002199600221596106
:100020000121F02299502B49196001219960352056
:1000300000F044F80222904214D00621196600F024
:1000400034F8196E01211966002018661A6600F04E
:100050002CF8196E196E196E052000F02FF8012189
:100060000842F9D1002199601B49196000215960AB
:100070001A491B48016001219960EB211966A021F2
:10008000196600F012F800219960164914480160C1
:100090000121996001BC002800D000471248134993
:1000A000086003C880F30888084703B5996A0420EC
:1000B0000142FBD001200142F8D103BD02B5186610
:1000C0001866FFF7F2FF186E186E02BD00000240BE
:1000D000000000180000070000035F00212200005C
:1000E000F4000018222000A00001001008ED00E03C
:1000F00000000000000000000000000074B24E7A12
:1001000000200420F7010010C3010010C5010010F9
:10011000C1010010C1010010C1010010C101001097
:10012000C1010010C1010010C1010010C701001081
:10013000C1010010C1010010C9010010CB01001065
:10014000CD010010CD010010CD010010CD01001037
:10015000CD010010CD010010CD010010CD01001027
:10016000CD010010CD010010CD010010CD01001017
:10017000CD010010CD010010CD010010CD01001007
:10018000CD010010CD010010CD010010CD010010F7
:10019000CD010010CD010010CD010010CD010010E7
:1001A000CD010010CD010010CD010010CD010010D7
:1001B000CD010010CD010010CD010010CD010010C7
:1001C00000BE00BE00BE00BE00BE00BEEFF3058054
:1001D000103800BEF2EB8871F82F00101C300010B0
:1001E0003402001090A31AE700201F49086006C8D7
:1001F00081F3088810471D48006800282FD10DA4FE
:100200000ECC002902D000F012F8F9E71849194A7B
:10021000002000E001C19142FCD1174988471749ED
:1002200088471749884700BEFDE701C901C29A42C5
:10023000FBD370471C300010C00000206402002077
:10024000C03100100000042000000420C031001064
:10025000001004200010042000000000704709482E
:1002600002F0DEF80047000008ED00E0000000D0DA
:1002700068020020EC5E022099220010390700106D
:100280008D2300105756000006005250ABB3605348
:10029000502F001006005250861C0302602F0010E1
:1002A000060052505422A29D702F0010050052509B
:1002B000DE65F468C0310010F8B5C04610B5064CD4
:1002C0002378002B07D1054B002B02D0044800E017
:1002D00000BF0123237010BD68050020000000004E
:1002E000982E0010044B10B5002B03D0034904488E
:1002F00000E000BF10BDC046000000006C050020FB
:10030000982E0010F8B54E46DE4657464546E0B5F5
:10031000EC4E3368012B00D1E6E0D023802140224F
:1003200080201B0649005A62596298628130FF3072
:1003300098629A6159618023E34A5B0110684340E7
:10034000E020C0010340E14803600420E04B186056
:1003500013680B42FCD05368DE4A1B041B0C13606D
:10036000DD4B12681F7898460F23DC4D3B409B0005
:100370005A510023DA4C01372360DA4B99460023A7
:100380004A461360286823689A4602F04DF95146A0
:1003900002F02CF92060686823689A4602F044F95C
:1003A000514602F023F92060A86823689A4602F0BB
:1003B0003BF9514602F01AF92060E86823689A4632
:1003C00002F032F9514602F011F9206028692368E1
:1003D0009A4602F029F9514602F008F9206068694E
:1003E00023689A4602F020F9514602F0FFF8206097
:1003F000A86923689A4602F017F9514602F0F6F808
:100400002060E86923689A4602F00EF9514602F02E
:10041000EDF82060286A23689A4602F005F95146F3
:1004200002F0E4F82060686A23689A4602F0FCF85B
:10043000514602F0DBF82060A86A23689A4602F071
:10044000F3F8514602F0D2F82060E86A23689A4631
:1004500002F0EAF8514602F0C9F82060286B2368E0
:100460009A4602F0E1F8514602F0C0F82060686B4D
:1004700023689A4602F0D8F8514602F0B7F8206097
:10048000A86B23689A4602F0CFF8514602F0AEF806
:100490002060E86B256802F0C7F8291C02F0A6F876
:1004A0002060206802F0E8F84B46000918604346D7
:1004B0001F7001238C4F33603A688C4B9A420DDCDD
:1004C0003A688B4B9A4209DD864B8A4A19689142F9
:1004D00004DC1968884A914200DDD2E0F0BCBB46DA
:1004E000B246A946A046F8BDD023402280218020F4
:1004F0001B069A6280004032490099625A62586233
:100500009861E0205A61704AC001136803406F4847
:10051000036004206E4B186013680B42FCD05368D4
:10052000764A1B041B0C1360754B126899461B78A6
:10053000744D98460F2341460B409B005A510023AF
:10054000714C694F236000233B6028689A462368FA
:100550009B4602F069F8594602F048F82060686846
:1005600023689B4602F060F8594602F03FF820608D
:10057000A86823689B4602F057F8594602F036F8FF
:100580002060E86823689B4602F04EF8594602F066
:100590002DF82060286923689B4602F045F85946EB
:1005A00002F024F82060686923689B4602F03CF85A
:1005B000594602F01BF82060A86923689B4602F0A8
:1005C00033F8594602F012F82060E86923689B4628
:1005D00002F02AF8594602F009F82060286A2368D8
:1005E0009B4602F021F8594602F000F82060686A44
:1005F00023689B4602F018F8594601F0F7FF206087
:10060000A86A23689B4602F00FF8594601F0EEFFF6
:100610002060E86A23689B4602F006F8594601F01C
:10062000E5FF2060286B23689B4601F0FDFF5946DB
:1006300001F0DCFF2060686B23689B4601F0F4FF4B
:10064000594601F0D3FF2060A86B23689B4601F058
:10065000EBFF594601F0CAFF2060E86B256801F006
:10066000E3FF291C01F0C2FF2060206802F004F8BB
:1006700043464A46013313705346000938603360DD
:100680001AE7224AE12194463D681B6889006344C9
:100690001801C01A400101F0F5FE1D4B04B29C4642
:1006A0006544A80040191B49C00101F0EBFEA023DE
:1006B0009B009C4660440722210000B200F06AF9CA
:1006C0000CE7C046AC05002000C0044000D0044048
:1006D00000E0044090050020E85E02209C5E0220BD
:1006E000DC5E0220E05E0220985E0220AB0D00007E
:1006F000DC050000270A0000A40600008C0500208D
:10070000E75E0220545E0220945E02205CF9FFFF47
:1007100024FAFFFF30F8FFFF10B504001F2100F09E
:100720006DF900222000002100F080F90021200056
:1007300000F094F910BDC04600B58BB002F05AF934
:1007400002F046FB1A20FFF7E7FF1B20FFF7E4FF4C
:1007500000F01EF8062000F095F9072000F092F94D
:10076000082000F08FF9092000F08CF900F082FDDC
:1007700004AB029300230193034B044A009301232B
:100780005B4200F037FEFEE7050300100CFEFFFFA2
:10079000F0B5D6464F464646C0B56E498AB06E485B
:1007A00002F014FA6D4906006B4802F00FFA6C492A
:1007B0000500694802F00AFA002380229946059351
:1007C000F82352025B0202920393C02304001B032E
:1007D000102202A906A89846049301F0A3FF310055
:1007E000731C08310A03DB01134306A9102202A877
:1007F000079301F097FF5B4B01270593A023062188
:10080000DB0210209A46029300F0F8F80123102230
:1008100000215148009702F03DFA320000214E4875
:1008200002AB02F08FFA29006B1C0D310A03DB01C9
:1008300013434D4A062113408022D20513430793E8
:1008400043460893494B112009935346069300F001
:10085000D5F80123112201213F48009702F01AFA2E
:100860002A0001213C4806AB02F06CFA4B4680227C
:100870000593F82352025B0202920393434610222F
:1008800002A906A8049301F04DFF2200A31C083220
:100890001203DB01134306A9102202A8079301F0FB
:1008A00041FF334B06211220059300F0A7F80621E3
:1008B000132000F0A3F80621142000F09FF8032372
:1008C000122202212448009702F0E4F922000221BA
:1008D00002AB214802F036FAA023264ADB051A6053
:1008E000254A26495A60962292029A60244A1A6141
:1008F000244A116080215360234B97601361164A8C
:10090000490253680B42FCD18021204B89021361BC
:10091000114A53680B42FCD1E0238021FF3353611D
:100920000D4AC90253680B42FCD14023FF33936147
:1009300080239B011A43164B01211360A0228623BA
:10094000D205DB00D1500AB0E0BCBA46B146A84699
:10095000F0BDC046982E001000002050D02E001090
:10096000B42E001000020004FFFFFF9F2046004449
:100970005202300C5406002018002050980100202C
:10098000110801004000005009801F008F02000084
:100990000707000030B5C443F023E41704400D1CE2
:1009A0005B00994202DBE023FF331D1C28B2C043E9
:1009B000C317A0202B4019B28B005B18DB01211C50
:1009C0008000844200DB0B4909B25B18D90708D5C7
:1009D000382409485B10C15CD200A1430A43C254C9
:1009E00030BD072404485B10C15CA1430A43C254D4
:1009F000F6E7C0467F02000054060020094A830043
:100A000094464022634410B51C68C0006240C02474
:100A100014408022520113431C60034B9C466044E7
:100A2000416010BD04C00140004001400A4B8000FD
:100A30009C4604236044002901D00C230821002A8D
:100A400000D10B00026853400C221A4080235B0146
:100A5000184302607047C04604C00140084B800044
:100A60009C466044002905D080239B011843402305
:100A700003607047C0239B01184340230360F8E7DD
:100A800004C001400123D022834012069362936187
:100A9000094A83009446402263441968C0004A40D2
:100AA000C02111408022520113431960034B9C4620
:100AB000052360444360704704C00140004001408A
:100AC000024B18688007C00F7047C04600C0064040
:100AD000EFF3108072B6034A1368002BFCD0BFF30B
:100AE0005F8F70472C0100D0BFF35F8F0022024B55
:100AF0001A6080F3108870472C0100D070B5EFF3B6
:100B0000108C72B60D4D2B68002BFCD0BFF35F8F9D
:100B10000724CB08C618C05C01230C40A3401C006E
:100B20000440034207D103433370BFF35F8F2C604F
:100B30008CF3108870BD100001F02CFC2C0100D04B
:100B40000021044B044ABFF35F8F02C39342FAD1E2
:100B50007047C046000100D0800100D0044A1078E0
:100B6000431CDBB2172B00D9102313707047C0460B
:100B70009C01002001238340002904D0034A136014
:100B8000034A13607047034A1360FBE780E200E00A
:100B900000E100E080E100E0024B10309B68800043
:100BA000C058704700ED00E070B50D00EFF31086FF
:100BB00072B60F4A1368002BFCD0BFF35F8F0D4B4A
:100BC00010309B6884001B590B4A934203D09D420E
:100BD00001D001F0F7FB074B9B681D51BFF35F8FFE
:100BE000BFF35F8F0022024B1A6086F3108870BD3E
:100BF000240100D000ED00E0CD010010F0B5DE468C
:100C000057464E464546E0B50C0083B0EFF31089D9
:100C100072B6584A1368002BFCD0BFF35F8F564B57
:100C20009A68030010339F00D559544A9046954264
:100C300032D0A54243D0524EAA1B2F2A2CD80122D3
:100C40008240924651464F4A1268114001915146E6
:100C50004D4A1160BFF35F8FEFF305829346002A80
:100C600033D101232A009A4393689C4208D177E04C
:100C70004B005B189B00F3189968A1422AD01A0018
:100C8000062151560029F3DA019B002B19D0524658
:100C90003E4B1A603B4B1A60374B9B68DD51BFF3EC
:100CA0005F8FBFF35F8F0022324B1A6089F3108889
:100CB00003B0F0BCBB46B246A946A046F0BD150045
:100CC000EAE75246304B1A60E6E79342C9D001F09A
:100CD00079FBC6E706215956002921DB4A00501846
:100CE000800034188046A0689860E079D8710620AA
:100CF00020569871002824DBA488F01A6405241576
:100D000044440019E0240005400D2402204398804B
:100D100052181F4B9200B6181A781970B271B3E7C7
:100D2000594600290FD1FF3191711A499180184914
:100D30000A789A71184A9B1B5B415A43120D0A703C
:100D4000A2E71648E3E7164A1649D21A083A5002B3
:100D5000400D01439980144952080A43DA8093E711
:100D60000621515613000029B8DA5A46002AEAD162
:100D70004546DCE7240100D000ED00E0CD01001085
:100D8000A001002000E100E080E100E080E200E05E
:100D9000E55E022001BDFFFFAAAA000001BD000020
:100DA000DA01002000F0FFFF00F8FFFF70B5EFF35D
:100DB000058101240443EFF3108C72B6214A1368B5
:100DC000002BFCD0BFF35F8F1F4B05001F4AED1AAD
:100DD0006D416A43120D1E4D8900AE6852B27658BD
:100DE000A6421CD00621595691421CD012215956B8
:100DF000914222D01E215956914220D02A21595683
:100E00000324914210D0134B19781A708171BFF3EB
:100E10005F8F00220B4B1A608CF3108870BDAB689B
:100E20000D4C5C50EFE700246100091989005B1844
:100E3000FF21997109499980E5E70124F4E702242B
:100E4000F2E7C046240100D0A0010020AAAA0000B9
:100E500000ED00E0E55E0220CD01001001BDFFFFC6
:100E6000054B064A1360064A136053609360D360D3
:100E700013615361936170478080808000E400E0DB
:100E800004E400E0024B9C46614489000160704725
:100E90004000003410B50400FFF760FE01002000A0
:100EA000FFF7F0FFFF232371BFF35F8F10BDC04634
:100EB00010B50400FFF752FE01002000FFF7E2FF2B
:100EC000FF23A380BFF35F8F10BDC04683680B482C
:100ED00010B5844661446244090112019A185918F8
:100EE00054684B6801209C4201D802D00020C0B257
:100EF00010BD12680B689A42F9D8F7E7FFFFFF0FA1
:100F000010B508000B690C009847002802D0206833
:100F1000616810BDE06000210020FAE70A4B196803
:100F2000EFF3108072B60A68002AFCD0BFF35F8F1F
:100F30001B68BFF35F8F00221A6080F3108840BFE8
:100F4000002000217047C04638060020F8B55746FB
:100F50004E464546DE46E0B599460CAB1C780DABD7
:100F60001B78060090469A460768002C11D1BC7B7E
:100F7000002C42D065003B682D19033D59194B7870
:100F8000BB73002B00D1FB7300238B704B700B7075
:100F900004E065003B682D19033D5919B2682A4BDE
:100FA00094464246E3181B0163441A604A465A605D
:100FB0000A9A9A600B9ADA6000238B704B700B7060
:100FC0007B7B9B46002B2BD022005946B8687B6860
:100FD00098473A68002816D05B4658465B005B4449
:100FE0005519033BA870D118D35C002B00D06B704F
:100FF0005B460C707B73A34513D0F0BCBB46B24676
:10100000A946A046F8BD5B465B005B44033BD31892
:101010009C705119525D002A00D05A705B460B70CB
:101020007C7342464B46307D00F036FC051E06D0F0
:101030005346002B03D12100306800F051FE0E9B77
:10104000002BDAD01D70D8E7FFFFFF0FF0B5DE46AA
:1010500057464E4645460023E0B58BB00893674B94
:101060008200D45800239B46099000F09BFB6268E5
:1010700006000F00EFF3108572B61368002BFCD04A
:10108000BFF35F8F23689C465B7B9946002B00D1A2
:1010900069E0A2685A4B90464B441B019844434672
:1010A0001A685B6810001900801BB941002900DC38
:1010B00063E0099800F0F0FB00230022984600232B
:1010C0000692079300239A466368BFF35F8F5A46E0
:1010D0001A6085F310885346002B08D10028C4D12C
:1010E0000BB0F0BCBB46B246A946A046F0BD089B7B
:1010F000414618024B461843D047626806000F006D
:10110000EFF3108572B61368002BFCD0BFF35F8F2E
:10111000002F50DB33003B4302D02369002B61D109
:101120002368D97B002907D04A00521819688C46D9
:1011300049466244033A51709A7B002A01D14A46DB
:101140009A734A46DA734B46E168013BCA5C013246
:10115000CA545B4623616368BFF35F8F5A461A60C7
:1011600085F3108881E70023002298460023069229
:101170000793002300209A46A6E7002902D1002801
:1011800000D096E70021604600F028FD43461A682B
:101190005B680692079343469B689A464346DB6822
:1011A0009846E3684B44013B1B7808931B020343BA
:1011B0002361002088E72369002BB1D0069A079BA2
:1011C000921BBB41002B15DB594604910121039171
:1011D0004946029141460191514620000091FFF796
:1011E000B5FEB6E700F0DEFA32003B0012184B41C4
:1011F000002BE9DA0122034B5242E5E724060020E6
:10120000FFFFFF0FFFFFFF7F10B5144C6368002B3B
:1012100004D00A211248FFF735FE10BD2300114A01
:101220001021206800F0F4FB032000F0AFFA032047
:1012300000F09CFB03200C4900F0E8FAFFF78EFC5D
:101240000A4B9C4603232375D0231B061B6860446E
:101250006375074B80006060DC60DAE7E80100201E
:1012600038060020CD0E00104D1000104000003454
:101270002406002000487047E8010020F0B54E46E3
:101280004546DE465746E0B585B0019310AB1B7866
:101290000600039300239946984600927268EFF384
:1012A000108B72B61368002BFCD0BFF35F8F3568CC
:1012B000AC7B002C3DD067002B683F19033FDB1946
:1012C0005A78AA73002A00D1EA73B168474A8C465B
:1012D00000980199A21812016244106051600E99A1
:1012E00091600F99D16042469A705A701A706B7B68
:1012F0009A46002B67D022001900A8686B689847AF
:101300002A68002852D0534650465B005344D719F0
:10131000033BB870D118D35C002B00D07B705346D0
:101320000C706B7354454FD0F3681B19013B187850
:1013300000E000207368BFF35F8F42461A608BF3B2
:101340001088002C4FD04B46002B08D100022043C0
:1013500005B0F0BCBB46B246A946A046F0BD039B13
:10136000002B3ED00E9B00200F99984703000400ED
:101370000D000B4335D000290ADA009A019B121B9D
:10138000AB4100920193002B0ADB039B994685E752
:1013900000F008FA24184D4100940195002DF4DA6C
:1013A0000123134C5B4200930194EEE753465B002C
:1013B0005344033BD3189C70D119D25D002A00D04E
:1013C0005A7053460B706C73307D009A019B00F08D
:1013D00063FA81460028A7D02100306800F080FC25
:1013E000A2E70020B4E701204042B1E7FFFFFF0F72
:1013F000FFFFFF7FF0B54E464546DE465746E0B557
:1014000085B01099804689461100194300D1D8E073
:10141000D81706005640340006005E400100350033
:10142000241A8D41494640460A6088600F9A0E98FA
:101430004B6008614A6100F0B5F9001969410090FC
:101440000191002900DACAE0002300259A464346AC
:101450005A68EFF3108B72B61368002BFCD0BFF301
:101460005F8F43461E68B47B002C00D189E0630087
:101470001B19033B1A009446039333680294634498
:101480005A78B273002A00D1F27341468968584AEB
:101490008C4600980199A2181201624410605160B4
:1014A000544991604946D16052469A705A701A70F8
:1014B000777B002F00D174E022003900B068736898
:1014C00098473268002861D003997B00DB195118D6
:1014D000033B8F70D018D35C002B00D079E00470F0
:1014E00077732E00BC425DD04346DB681B19013B7D
:1014F0001B7842465268BFF35F8F514611608BF3F1
:101500001088002C67D0002E0DD1029A1B021343C5
:1015100001364A463000D36005B0F0BCBB46B24647
:10152000A946A046F0BD4846036998470500031E3A
:1015300001D10023EDE74A461668576832003A4366
:1015400053D0002F0EDA009B019C9B1BBC410093E3
:101550000194002C00DB7AE70123274C5B420093C7
:10156000019474E700F01EF936184F410096019778
:10157000002F00DB6BE701231F4C5B4200930194BB
:1015800065E700222E0000230292B2E77B00DB1900
:10159000033B0398D3189C701118125C002A15D1D4
:1015A0000F7074734346187D009A019B00F074F924
:1015B000061E00D198E743462100186800F090FB12
:1015C00092E701240025012200232BE75A700F70B7
:1015D000E7E74B7083E7012300265B4299E701238D
:1015E000054C5B42009301942EE71E00002390E718
:1015F000FFFFFF0F010F0010FFFFFF7FF0B5EFF3BC
:101600000583CE46474680B505000C0085B0002B0B
:1016100012D02C4A0020536A9C4203D8926A0130AF
:10162000AA4204D305B0C0BCB946B046F0BDE01A2A
:10163000421E9041C0B2F5E7234E02930193234B23
:101640000200009330000B00FFF718FE031EE0DDE0
:1016500020BF7168EFF3108772B60A68002AFCD0C9
:10166000BFF35F8FDAB294463068427B62451DD08B
:10167000FF221A4051008946016891448846494634
:10168000414403398978002913D0F1681B0A884640
:101690004244013A1278DBB29A420FD07368BFF32A
:1016A0005F8F00221A6087F31088B2E7FF221A408A
:1016B000EBE732699342F1D13161EFE7614600F027
:1016C0000FFBEBE700400540E80100201D0F001074
:1016D000F0B5EFF30582D6464F4646461000C0B53A
:1016E0001038EFF3108872B6214C2368002BFCD021
:1016F000BFF35F8F0123190081401E4D1F006963F6
:10170000AA461D4D29601D4D2E78AC463500C540BA
:101710002F402B4209D1BFF35F8F276088F31088D9
:10172000E0BCBA46B146A846F0BD5346144D5F6AC8
:1017300083005D59AF420ED3124A8E439B586246D6
:101740001670BFF35F8F0022226088F31088002B91
:10175000E6D09847E4E70C4B92009C46624413683D
:101760001360BFF35F8F0023236088F31088D7E7EF
:10177000280100D0004005403C700540E65E022094
:101780003C06002094050020D03F054010B5010024
:10179000024A0348FFF7B2F910BDC046F42E00100C
:1017A000E45E0220034B596A0A00986A596A8A4229
:1017B000FAD170470040054070B504000D00124A90
:1017C000536A1900966A536A8B42FAD130001900A5
:1017D00024184D41AB4211D80ED02B000A494A6A59
:1017E0009A42FCD307D1084A02E0516A994202D1D9
:1017F000916AA142F9D370BDA642EED9012301241A
:101800006442E5175B42E9E70040054070B504001B
:101810000D00EFF3108672B61A4A1368002BFCD045
:10182000BFF35F8F002D1BD02000FFF7B5F91649DD
:1018300081420AD02000FFF7B7F901212000FFF70D
:1018400099F90123A340114A1360114BA400E550FC
:10185000BFF35F8F00220B4B1A6086F3108870BDB8
:101860000B4BA200D5500122A2400A4920000B7860
:1018700093430B700449FFF7C1F900212000FFF7E3
:1018800079F9E5E7280100D0D1160010386005404D
:1018900094050020E65E0220F0B54F46D646464647
:1018A000C0B507002C4C616A0D00A66A616AA942A6
:1018B000FAD18B4208D805D00120E0BCBA46B14627
:1018C000A846F0BDB242F7D9EFF3108A72B62348AA
:1018D00001680029FCD0BFF35F8F0125BD4020497E
:1018E0001D4C8846097889462943C9B28C46414631
:1018F00060460870391D1B48890065630A51B900AC
:101900000B50216A0020294219D0616A0800A66A9A
:10191000616A8142FAD18B4219D801D1B24216D8FC
:10192000CC4516D00C4B1F201D625D630123074080
:10193000BB400D4A1E38136043464A461A70BFF337
:101940005F8F0022054B1A608AF31088B5E70020EC
:10195000F5E70120F3E7C04600400540280100D02C
:10196000E65E02203C06002080E200E0EFF3108CEF
:1019700072B60A490B68002BFCD0BFF35F8F0123BE
:101980008340074A0748136202789A430270BFF304
:101990005F8F00230B608CF310887047280100D004
:1019A00000400540E65E022070B5050014001600F8
:1019B000002915D00C00002A12D080686B68984767
:1019C000296800280ED073009B196200033B12198E
:1019D000CB18033A9C7088188A5C002A15D10670CF
:1019E000200070BD63001B197200033B9219CB18D5
:1019F000033A9E7088188A5C002A02D10470340071
:101A0000EEE75A7004703400EAE75A700670E7E7B0
:101A100030B583600023CCB243730133047342605A
:101A20008373C4730D000068012C06D9421C013376
:101A3000DBB2137003329C42F9D1FF2129404B00E5
:101A40005918002340180338437030BDF8B5CE460E
:101A5000474606000C0080B5002907D04D000368FA
:101A60006D18033D5A195778002F04D12000C0BCCF
:101A7000B946B046F8BD7900C919033988464344D0
:101A80005978894600215970517073683A002100D5
:101A9000806898473368002814D042469A1894709A
:101AA00059195B5D002B00D053700F702700494619
:101AB0003000FFF7CBFF390002003000FFF774FF62
:101AC0000400D3E7424641465D19AF709A185B5C4B
:101AD000002B00D06B701470E9E7C046F0B5574694
:101AE0004546DE464E46E0B50D006B0001685B19C9
:101AF000DF1E0400C85D83B00192CA19002850D0CF
:101B000043001B18033BCB185E78B446002E1AD155
:101B1000019E002E42D0E67B002E04D073009B195C
:101B2000CB18033B5D70A37B002B00D1A573E5733D
:101B300000282FD10023537003B0F0BCBB46B2463F
:101B4000A946A046F0BD72006244033A89184A785B
:101B5000904600224A7091465A70010032002000DF
:101B6000FFF722FF43468246002B07D05B00216827
:101B70004344033BCB185A78002A16D142465146BB
:101B80002000FFF711FF2168019BCA19002BC2D169
:101B90000028CFD043001B18033BCB1800219970BD
:101BA000C8E7019B002BB6D1C4E75000801803386A
:101BB00009184878834648464870587041462000C6
:101BC000FFF7F2FE594680462000FFF73FFF4146EF
:101BD00002002000FFF7E8FE8046CFE7F0B5574649
:101BE0004546DE464E46E0B583B00191457B040094
:101BF0006B0000685B19DF1EC15DC219002952D05D
:101C00004B005B18033BC3185E78B446002E1CD112
:101C1000019E002E44D0E67B002E04D073009B1959
:101C2000C318033B5D70A37B002B00D1A573E57344
:101C3000002931D1002328005370617303B0F0BC38
:101C4000BB46B246A946A046F0BD72006244033AC4
:101C50008018427890460022427091465A702000C7
:101C60003200FFF7A1FE43468246002B07D05B00FF
:101C700021684344033BCB185A78002A17D14246C7
:101C800051462000FFF790FE019B01002068C21919
:101C9000002BC0D10029CDD04B005B18033BC318EB
:101CA00000209870C6E7019B002BB4D1C2E750001A
:101CB0008018033809184878834648464870587099
:101CC00041462000FFF770FE594680462000FFF78E
:101CD000BDFE414602002000FFF766FE8046CEE7CB
:101CE00070B5040000292CD0437B8B422ED00568B0
:101CF00048004018033828188278002A21D0530061
:101D00009B18033BEA5CEE188A4202D11BE0002AD2
:101D100008D053009B18033BEB185A788A42F6D13F
:101D200042785A7000230122837043702000FFF72D
:101D3000D5FE617B02002000FFF736FE60730120B4
:101D400000E0002070BD43783370EBE701221900FA
:101D5000FFF7C4FE60730120F4E7C046F8B5CE4635
:101D60004746040080B506200E0000F023FA051E49
:101D700051D0524B5249E21853425A418023DB035F
:101D80009C4692054F4B62441A604F4B1A601000FC
:101D90008B689843FBD1494B8021E3185A42534149
:101DA0004A4A5B0049009952062000F003FA3100CC
:101DB000C00000F08FFBC30932D1402201219046C0
:101DC0006162A362256BEB0736D427008026E36AA5
:101DD00000232C3776013E4333600620256300F054
:101DE000E9F94146800000F075FB236B0500984639
:101DF000DB073BD46022E36A5A406E231340336012
:101E000043462363802310229B013B431A60304BDF
:101E100023630323A3642800C0BCB946B046F8BDC1
:101E20002C4A93423FD900232B492C4A6162A3627A
:101E3000256B9046EB07C8D52200C02330329B01AA
:101E40001343234A06201A60666AA26AB601B618CE
:101E500000F0B0F9224900F03DFBB602010030006D
:101E600000F038FB0021FFF7A7FCAEE72200C023FB
:101E700030329B011343164A06201A60636AA26A35
:101E80009B019946914400F095F94B4614499B02F9
:101E9000994600F01FFB0100484600F01BFB0021A3
:101EA000FFF78AFCA6E77F2299018846104001309F
:101EB000400819008044030082E7C0460080FCBF50
:101EC00000C0004000E0004000F000404C06002050
:101ED00001030000FEFF0000FFFF0000C0FF3F0005
:101EE0004E0E000030B50C2083B000F0B9F9FEF7BB
:101EF000E7FD00280ED0994B994A1A605A609A6003
:101F0000DA601A615A619A61DA611A62954A5A6214
:101F100003B030BD944CA06700F0AAF90122934BA6
:101F20001A60636C012BFCD10322914B1A608E4A1C
:101F3000936B012BFCD1013301218E4A8E48009313
:101F4000043300F03DF905238C4A009301218C48AD
:101F500000F036F98B4B5A68FF2A02D880225200D3
:101F60005A6080227D4C824B21691201854D1A6096
:101F7000002907D0606900F0ADFA431C5800C01872
:101F80000338FDD2E0217F4B02201A6811408022E5
:101F900052012A4311601968484003210140116031
:101FA00004219A681142FCD08022802192012A43A8
:101FB00009011160802252005A60734B2361734BF8
:101FC0005968FF2900D85A600321684A6F4B116095
:101FD00002399A681142FCD0E0201A681040802231
:101FE00052011A4310601868484003210140022042
:101FF000116066498A681042FCD080229201134326
:10200000802212011A608022614B52004A60636193
:10201000604B5968FF2900D85A6080225E4BE16905
:1020200012015C4D1A60002907D0606900F052FA75
:10203000431C5800C0180338FDD2E02255490B68F4
:102040001A4080235B012B431A60802380229B016E
:102050002B4312011A608022414B52004A60E36117
:102060004E4B5968FF2900D85A6080224C4B216A98
:1020700012014A4D1A60002907D0606900F02AFA5F
:10208000431C5800C0180338FDD2E02243490B68B6
:102090001A4080235B012B431A60802380229B011E
:1020A0002B4312011A60802380225B004B602C4B73
:1020B000D20223623B4B5968914200D25A6080227F
:1020C000394B616A1201374D1A60002907D06069E7
:1020D00000F000FA431C5800C0180338FDD2E0227B
:1020E00030490B681A4080235B012B431A60802320
:1020F00080229B012B4312011A608023DB024B607C
:10210000184B6362294B5A68FF2A02D8802252007A
:102110005A608022264BA1691201244D1A600029C1
:1021200007D0606900F0D6F9431C5800C018033886
:10213000FDD2E0221D490B681A4080235B012B432E
:102140001A60802380229B012B4312011A60802396
:102150005B004B600E4BA361DAE6C046B005002081
:10216000006CDC021BB70000008000403CB0004067
:1021700030B00040002F685900800240008C864734
:1021800000C0024030800040001BB7003C8000408F
:10219000405973075480004054B0004060800040B4
:1021A00060B000406C8000406CB00040488000404F
:1021B00048B00040014B8000C0587047B005002077
:1021C000F8B5040021481D0017000E0000F082F948
:1021D0000100380000F07EF9069B29041B03194317
:1021E0002368002B20DB1A4B1A4DE21853425A4148
:1021F00080235B019C461203174B62441A60174B05
:102200001A601700AB689F43FBD1C022231D9201C7
:102210001A4321232660A06013602368002BFCDA98
:102220000823E1601360F8BD3F2322681340B342E6
:10223000D9D1A3681B051B0D8342D4D1EE22E368DC
:10224000D20213408B42CED1EDE7C046001BB7004F
:102250000040FDBF00C0004000E0004000F0004032
:102260008023024A9B000343D362704700800540ED
:10227000AA23064A1B0113602F230549D360054B8F
:1022800019605368002BFCDA7047C04600400240DA
:1022900000B0FA00006002402C4B2D4A70B51A6065
:1022A0002C4A2D4B2D491A6014008B689C43FBD19E
:1022B0002B4D2C4EB54208D2013E761BB60808CDF8
:1022C000984723000134B342F9D1FFF70BFE264AA9
:1022D000214B1A60214A9368DB43DB01DD09002BA7
:1022E000F9D14022214B224C224E9A675A671A6735
:1022F000DA66B44208D223682000002B20D00834CC
:10230000FEF7D6FDB442F6D31B4E1C4CC022A1688A
:10231000300000F007FAA660FEF712FCFEF7A0FD01
:10232000FEF772FF164C174EB44208D2013E361B20
:10233000B60808CC98472B0001359E42F9D170BDF4
:102340000834FEF7A7FDB442D5D3DDE700E0004036
:10235000BFCDFBFEFE7F3C0000F0004000C000400F
:102360005002002060020020FFFFFF0100F001404A
:1023700048020020500200200000002000ED00E094
:10238000600200206402002000BEFDE710B5FFF7E8
:10239000FBFFC0460FB400B5084883B000F0F4FA64
:1023A000049B002B07D005A91800019100F018F834
:1023B000034800F0E9FA0120FFF7E6FF182F0010AC
:1023C000282F001010B50148FFF7E4FF2C2F001054
:1023D00010B5002800D110BD00F08AFAFBE7C04616
:1023E00010B5094A0300146884B0002C08D00122FB
:1023F00000910648524203A9A047012004B010BD35
:1024000000F0C2FA0020F9E720060020D1230010D6
:1024100001480421014B18471002002041240010FC
:10242000142310B50100188804331B88984710BD89
:10243000162310B50100188802331B88984710BD79
:10244000F8B54746CE4680B50F1E19D014239946DD
:10245000043304000025012698464B46188843465D
:1024600021681B88984701C4431E984101354042AA
:102470000640AF42F1D13000C0BCB946B046F8BD0D
:102480000126F8E7124A936F9B0815D29066D16631
:10249000002905D0FFE7FFE7FFE7516F106F704796
:1024A00004B580210906C2175140002800D0C84356
:1024B00000F0E2FC002104BDF0B5146E556E576FBC
:1024C000166FFFF7E3FF1466556657671667F0BD92
:1024D000000000D0114A936F9B0813D2106651661A
:1024E000002905D0FFE7FFE7FFE7516F106F704746
:1024F00004B5002801D00020C04300F0BDFC00213D
:1025000004BDC046F0B5146E556E576F166FFFF7D9
:10251000E5FF1466556657671667F0BD000000D0EA
:10252000132370B51D78012D15D010DD1C48FFF761
:102530007FFF1C4C01008022200000F0F3F8022DE8
:1025400006D01948FFF76CFF184B186070BD154C8A
:10255000174BA364F5E7164B124C23606360A3602E
:10256000E36023616361A361E36123626362A36249
:10257000E36223636363A363E36323646364A36429
:10258000E36423656365A365E36523666366A36609
:10259000E36623676367A367E367A364D1E7C04685
:1025A00053440000680300204C3300003406002030
:1025B000B525001007B5604601880A0A0230DF2AF7
:1025C000FAD1C9B2820804D30288408800041043BB
:1025D00000E00068014A5050039007BD68030020E6
:1025E0004840414048400E4B5B6818470C4B1B6805
:1025F00018470C4A936F9B0802D2094BDB681847B7
:10260000F0B5146E556E576F166FFFF7F6FF054A5B
:102610001466556657671667F0BD014B9B681847EF
:1026200068040020000000D0491A002808D108469C
:1026300070470000C10FC90700D54042002817D0DD
:10264000F44603B40B4B1B68984706BC81409E3888
:102650004042803107D20B0607D04900490AC00525
:102660001043084360470130F8E7490A8902F5E75B
:102670007047000034060020014B5B6A18470000D9
:1026800068040020132310B512481C78FFF7D0FE11
:102690000100012C0AD003DD80220F4800F042F82F
:1026A0000E48FFF7BDFE0E4B186010BD0A4C5422B9
:1026B000200000F037F80B4B6365A365E3652366E4
:1026C0006366A366E36623676367A367E3672362C2
:1026D000E361E5E753460000680400204C33000046
:1026E00034060020E926001007B5604601880A0A72
:1026F0000230DF2AFAD1C9B2820804D302884088A6
:102700000004104300E00068014A5050039007BDE8
:102710006804002001480421014B184720020020D2
:1027200041240010014B5B68184700002002002084
:10273000030010B5080011001B68984710BDC04683
:10274000F0B546464F46D646C0B5437D80460E009E
:102750001700002B46D0002A3FDD4B1E9946244B24
:102760000125002400209A460DE04B461B5D0D3BE1
:102770005A425341325DDBB20A2A0BD02B0001349E
:1027800001359F421ADD002CEFD14346325D1B7D9F
:102790000A2AF3D1002BF1D1A04204DA4346211AD0
:1027A0001B6830189847434650461B6802219847DB
:1027B000013428002B0001359F42E4DC874204DD10
:1027C0004346391A1B6830189847F619013E33788A
:1027D0000D3B5A42534142461375E0BCBA46B146DE
:1027E000A846F0BD0368110030009847F5E7C046E1
:1027F000A02F0010F0B5DE4657464E464546E0B5E0
:1028000085B017001C0006000D00FEF7CBFF00236B
:10281000304A12184B41002B58DB2F4908008A46DA
:1028200000F032FB01906B1C03D1300000F0ECFA99
:102830000500002C25D1294B9846294B1C68002CFB
:1028400015D0002F20D1274F02E02469002C0ED094
:102850002368002BF9D03B68002B01D0A342F4D1B0
:1028600020002A003100C0472469002CF0D1019BD0
:10287000002B27D105B0F0BCBB46B246A946A04606
:10288000F0BD194B9846D8E7164B994602ABDF1DB1
:102890000A239B4602E02469002CE8D02368002B21
:1028A000F9D04B461B68002B01D0A342F3D12A007C
:1028B00031002000C0475B460122390020003B70F8
:1028C000C047E8E7504600F0CFFAD3E70122074BB4
:1028D0005242A2E740420F00480200204127001068
:1028E000180600201C06002031270010FFFFFF7F84
:1028F000F0B5CE46474680B583B06B460600DD1D79
:102900002870FEF74FFF00231A4A12184B41002B84
:102910002BDB19490800884600F0B6FA174B8146B0
:102920001C68002C14D0164F02E02469002C0FD034
:102930002368002BF9D03B68002B01D0A342F4D1CF
:10294000200001222900FFF7FBFE2469002CEFD1B3
:102950004B46002B05D1300003B0C0BCB946B04691
:10296000F0BD404600F080FAF5E70122054B5242E7
:10297000CFE7C04640420F00480200201806002062
:102980001C060020FFFFFF7F70B5040000F03CFA3A
:1029900000230100050001222000FFF72BFF084B58
:1029A0001C68002C06D06368002B05D0984724696A
:1029B000002CF8D1280070BD2469002CF3D1F9E770
:1029C000180600200A4A1368002B05D10CE01A00F3
:1029D0001B691032002B07D09842F8D1002902D190
:1029E00003691360016170470029FCD01060FAE7A9
:1029F0001806002010B500F0C5F8012010BDC04633
:102A0000F0B50D1E15DD0E4B0D271A680D4B45193F
:102A1000D31859424B410C495B005E5E202104787B
:102A2000A64207D093691942FCD101301460A84234
:102A3000F5D1F0BD93691942FCD11760F2E7C046A9
:102A4000500600200080FCBF4C06002030B504007A
:102A50000D1E26DD002010211B4B013C1A689369D6
:102A6000194219D1013093691942FCD113682354DA
:102A70008542F4D1154B1B68002B0CD05023936377
:102A8000516B183B34320B401100802252010A4333
:102A90001360002815D030BD0C4B1B68002BEDD106
:102AA000F7E70A4B1B68002B0BD050223821064B4E
:102AB0001B689A635A6B34331140802252011343CE
:102AC000196003204042E6E750060020A4050020DC
:102AD000064B10B51B68002B06D00021044A126873
:102AE0009163044A1068984710BDC046A4050020B1
:102AF00050060020A80500201D4BF0B51A68C646F8
:102B000098461C4B0E00D31859424B411A4F1433B0
:102B10001C00050000B53B68002807D0002B11D031
:102B2000164B3D601E6080BCB846F0BD002BF7D050
:102B3000906300212000FEF71DF820001049FEF7E9
:102B40005DF8EDE720000E49FEF72EF80121200088
:102B5000FEF710F84346502238211B689A635A6BDF
:102B6000343311408022520113431960D8E7C04624
:102B7000500600200080FCBFA4050020A80500200E
:102B8000D12A00100C4B10B51B780C4B0C4C1B7849
:102B90000C4B022100202360FDF730FF02210120B1
:102BA000FDF72CFFE12120684902FFF7D7F801214A
:102BB0000548FFF707FF10BD143000101830001053
:102BC000500600200040034030020020F0B5D646F9
:102BD0004F4646468846C0B505240600FDF778FFF7
:102BE00043461F791C57284B8146F01843425841F1
:102BF000264B9A4683009C465346624698580122CB
:102C00002023BA40DB1B013A002C32DB9C422DDC36
:102C1000A2401500104229D1002F1AD043465A78FD
:102C200019781202114342469B78D2781B040B4359
:102C300012061A439046002241465300C95A4B0BD4
:102C400000D10919131912339B000132995197428F
:102C5000F2D85346624605439D504846FDF744FF6F
:102C60002000E0BCBA46B146A846F0BD0848FFF7D0
:102C700091FB002B02DAF9E7013BF7D315009D40E9
:102C80001C000542F8D1C7E70000D0AF8405002042
:102C9000E42F0010F0B557464E464546DE468946BD
:102CA000E0B583B00CA90D784946490088464944EF
:102CB000C900461837003400DC3701903868CC343E
:102CC00083462068C02482460198CC318446A40102
:102CD000614421438024A4020C60691E8D411F21A0
:102CE0006D420D4016498C466544052B0ED9A02136
:102CF00049058C461F21D8366046540104430532ED
:102D0000053B3C600A403560052BF5D84146520131
:102D10009B0613434944019AC90050180200DC3253
:102D200013600300D8331D605B4613605346CC30FC
:102D3000036003B0F0BCBB46B246A946A046F0BD56
:102D400080E00000F0B501258D400468AC434D00E3
:102D500004606C18E40004192600C836002B28D043
:102D60001F68DC3437605F6877609F68DB68B76036
:102D700023606D18EB001D008024D03545196401D7
:102D80002C4380252D062560256001250F4C2E0043
:102D90008C4084600C1DA640802408318D401F218A
:102DA000A4010443C0180A40D830266025600260A0
:102DB000F0BD80277F023760F8277F027760C02749
:102DC000DC343F03B7602360D3E7C0460101010153
:102DD00001230121084A1360084A1360084A0800C9
:102DE00093689843FBD1074A11608021490013681A
:102DF0000B42FCD07047C04600E0004000F00040AD
:102E000000C0004000C0044010B583070AD0030092
:102E1000032102E001330B4205D01A78002AF9D1D0
:102E2000181A10BD030019680C4A0D4C8A188A4301
:102E300022420FD15968094A04338A188A43224230
:102E400008D15968054A04338A188A432242F1D0CE
:102E500000E001331A78002AFBD1E1E7FFFEFEFE15
:102E600080808080F8B5C04601B40248844601BC29
:102E7000604700BF5D01002001B40248844601BCE8
:102E8000604700BF8501002001B40248844601BCB0
:082E9000604700BFC1000020F3
:102E9800A02E001009FF0000A08027A0420000FF1C
:102EA80000FF00FF01FF01EC00C10000BC2E001074
:102EB80009FF0000A08047A000E022A0C123A08055
:102EC8000364036245000000D82E00100EFF0000C6
:102ED800A08027A0C02001C0420049E0C020860091
:102EE80000E0C020C0205FE0C0388C0048617264F8
:102EF8007761726520616C61726D20256420616C58
:102F0800726561647920636C61696D6564000000B5
:102F18000A2A2A2A2050414E4943202A2A2A0A00EE
:102F28000A0000004861726420617373657274005E
:102F380052656C6561736500626F6F74325F7732DA
:102F48003571303830000000312E352E3100000048
:102F58007069636F00000000747261636B70616474
:102F68005F74657374000000536570202037203249
:102F78003032330006005250BBFF3CB6582F0010C9
:102F880006005250E182887F402F00100600525000
:102F9800D3F07542382F00100D0A000055415254E5
:102FA80020737464696E0000554152542073746430
:102FB8006F7574005541525420737464696E202FE4
:102FC800207374646F7574000600525053B4F4A1F2
:102FD800BC2F001008005250920000004E6F207065
:102FE800726F6772616D2073706163650000000025
:102FF800AC020010A0020010940200107C2F0010F8
:1030080088020010882F0010942F0010D02F001075
:04301800DC2F001099
:10301C00F0B5C646150000B504001E000268EFF3BB
:10302C00108172B61368002BFCD0BFF35F8F0423A2
:10303C00E356002B2DDB2268BFF35F8F002010605E
:10304C0081F31088D0221206127852B290469A421E
:10305C0003D1002080BCB846F0BD00270BE02368EC
:10306C00BFF35F8F1F6081F310882800310000F0E0
:10307C0033F80028EDD12268EFF3108172B6136893
:10308C00002BFCD0BFF35F8F23797F2BE7D943460E
:10309C0002E0D0231B061B6823712368BFF35F8FEC
:1030AC0000221A6081F310880120D3E70268EFF345
:1030BC00108172B61368002BFCD0BFF35F8FFF2317
:1030CC0003710368BFF35F8F00221A6081F31088CD
:1030DC0040BF70477047C04601B40248844601BCEB
:1030EC00604700BFFD1500105406002010000000C2
:1030FC0000000000000001000000000000000000C3
:10310C0000000200000000000000000000000300AE
:10311C0000000000000000000000FF0000000000A4
:10312C0001B5486801318E4600477046093801499F
:10313C00884701BDAD0D001000020020000000000A
:10314C0068020020D80500200000000000000000EC
:10315C00E805002000000000000000001000000046
:10316C00503300004C330000543300005233000045
:10317C004D5300004D430000533400004334000015
:10318C00012A0010000000004D2A0010F92A00103E
:10319C000000000000010000000000000000000022
:1031AC001527001011240010212500108526001071
:0431BC00E502001018
:04000005100001E9FD
:00000001FF
