:020000041000EA
:1000000000B5324B212058609868022188439860DF
:10001000D860186158612E4B002199600221596106
:100020000121F02299502B49196001219960352056
:1000300000F044F80222904214D00621196600F024
:1000400034F8196E01211966002018661A6600F04E
:100050002CF8196E196E196E052000F02FF8012189
:100060000842F9D1002199601B49196000215960AB
:100070001A491B48016001219960EB211966A021F2
:10008000196600F012F800219960164914480160C1
:100090000121996001BC002800D000471248134993
:1000A000086003C880F30888084703B5996A0420EC
:1000B0000142FBD001200142F8D103BD02B5186610
:1000C0001866FFF7F2FF186E186E02BD00000240BE
:1000D000000000180000070000035F00212200005C
:1000E000F4000018222000A00001001008ED00E03C
:1000F00000000000000000000000000074B24E7A12
:1001000000200420F7010010C3010010C5010010F9
:10011000C1010010C1010010C1010010C101001097
:10012000C1010010C1010010C1010010C701001081
:10013000C1010010C1010010C9010010CB01001065
:10014000CD010010CD010010CD010010CD01001037
:10015000CD010010CD010010CD010010CD01001027
:10016000CD010010CD010010CD010010CD01001017
:10017000CD010010CD010010CD010010CD01001007
:10018000CD010010CD010010CD010010CD010010F7
:10019000CD010010CD010010CD010010CD010010E7
:1001A000CD010010CD010010CD010010CD010010D7
:1001B000CD010010CD010010CD010010CD010010C7
:1001C00000BE00BE00BE00BE00BE00BEEFF3058054
:1001D000103800BEF2EB88716433001088330010D1
:1001E0003402001090A31AE700201F49086006C8D7
:1001F00081F3088810471D48006800282FD10DA4FE
:100200000ECC002902D000F012F8F9E71849194A7B
:10021000002000E001C19142FCD1174988471749ED
:1002200088471749884700BEFDE701C901C29A42C5
:10023000FBD3704788330010C00000206402002008
:100240002C35001000000420000004202C35001084
:10025000001004200010042000000000704709482E
:1002600001F08CFC0047000008ED00E0000000D029
:1002700068020020440C0020F5190010050300104E
:10028000E91A00105756000006005250ABB36053F5
:10029000D432001006005250861C0302E4320010D3
:1002A000060052505422A29DF03200100500525018
:1002B000DE65F4682C350010F8B5C04610B5064C64
:1002C0002378002B07D1054B002B02D0044800E017
:1002D00000BF0123237010BD68050020000000004E
:1002E00078320010044B10B5002B03D003490448AA
:1002F00000E000BF10BDC046000000006C050020FB
:1003000078320010F8B5CE46474680B5C0273C4C41
:1003100002F0E2FDBF0120003A4902F0C9FE3900B7
:100320000223394D626829430B600F2120681A406F
:100330004140CF208023084080219B0149012B436D
:100340000C43206001211A60042000F07BF8012199
:10035000052000F077F80121062000F073F8012154
:10036000072000F06FF8294B294E012408C6294BBD
:1003700099464A46284B951C138080235B0098467B
:10038000200002F0ADFB02F0CDFB244A244B01F02B
:100390008CFC0022234B01F088FC01F0CDFC0022F4
:1003A000214B01F082FC00221F4B01F057FC01F0B1
:1003B00089FC01C60005000D384301342880023550
:1003C0004445DDD1194A1A4B01211360A023DB05F6
:1003D0005360916017490020116184221649D200B0
:1003E00099504A461A60154A02215A60144A9C6084
:1003F0001A618622D2009950C0BCB946B046F8BDF9
:1004000000C00340002D310104C00340FF0700007D
:100410002008002084050020FF3700006F1283C0F1
:10042000CA2119400000703F00FC9F40400000506E
:100430009801002009801F00FFFF170008C003403B
:1004400015881D00094A830094464022634410B574
:100450001C68C0006240C024144080225201134333
:100460001C60034B9C466044416010BD04C00140C9
:1004700000400140024B18688007C00F7047C0461B
:1004800000C0064070B5EFF3108C72B60D4D2B68AE
:10049000002BFCD0BFF35F8F0724CB08C618C05CCD
:1004A00001230C40A3401C000440034207D1034336
:1004B0003370BFF35F8F2C608CF3108870BD100019
:1004C00001F016FB2C0100D00021044B044ABFF3BD
:1004D0005F8F02C39342FAD17047C046000100D03B
:1004E000800100D0044A1078431CDBB2172B00D9DE
:1004F000102313707047C0469C01002001238340E5
:10050000002904D0034A1360034A13607047034A6A
:100510001360FBE780E200E000E100E080E100E042
:10052000024B10309B688000C058704700ED00E01F
:1005300070B50D00EFF3108672B60F4A1368002BEA
:10054000FCD0BFF35F8F0D4B10309B6884001B59AC
:100550000B4A934203D09D4201D001F0E1FA074BD0
:100560009B681D51BFF35F8FBFF35F8F0022024B6B
:100570001A6086F3108870BD240100D000ED00E001
:10058000CD010010F0B5DE4657464E464546E0B573
:100590000C0083B0EFF3108972B6584A1368002B31
:1005A000FCD0BFF35F8F564B9A68030010339F0057
:1005B000D559544A9046954232D0A54243D0524E26
:1005C000AA1B2F2A2CD801228240924651464F4A1C
:1005D00012681140019151464D4A1160BFF35F8F7F
:1005E000EFF305829346002A33D101232A009A4370
:1005F00093689C4208D177E04B005B189B00F3188E
:100600009968A1422AD01A00062151560029F3DA2E
:10061000019B002B19D052463E4B1A603B4B1A608F
:10062000374B9B68DD51BFF35F8FBFF35F8F0022B5
:10063000324B1A6089F3108803B0F0BCBB46B24657
:10064000A946A046F0BD1500EAE75246304B1A60B5
:10065000E6E79342C9D001F063FAC6E7062159568E
:10066000002921DB4A005018800034188046A06819
:100670009860E079D871062020569871002824DB14
:10068000A488F01A6405241544440019E0240005E8
:10069000400D24022043988052181F4B9200B61838
:1006A0001A781970B271B3E7594600290FD1FF319A
:1006B00091711A49918018490A789A71184A9B1BBE
:1006C0005B415A43120D0A70A2E71648E3E7164A47
:1006D0001649D21A083A5002400D01439980144934
:1006E00052080A43DA8093E7062151561300002985
:1006F000B8DA5A46002AEAD14546DCE7240100D0A0
:1007000000ED00E0CD010010A001002000E100E0BC
:1007100080E100E080E200E0410C002001BDFFFF2D
:10072000AAAA000001BD0000DA01002000F0FFFFCE
:1007300000F8FFFF70B5EFF3058101240443EFF3E8
:10074000108C72B6214A1368002BFCD0BFF35F8F68
:100750001F4B05001F4AED1A6D416A43120D1E4DD5
:100760008900AE6852B27658A6421CD0062159566E
:1007700091421CD012215956914222D01E21595625
:10078000914220D02A2159560324914210D0134B74
:1007900019781A708171BFF35F8F00220B4B1A60BA
:1007A0008CF3108870BDAB680D4C5C50EFE70024F3
:1007B0006100091989005B18FF2199710949998025
:1007C000E5E70124F4E70224F2E7C046240100D063
:1007D000A0010020AAAA000000ED00E0410C0020CA
:1007E000CD01001001BDFFFF054B064A1360064A0C
:1007F000136053609360D3601361536193617047DA
:100800008080808000E400E004E400E0024B9C462D
:1008100061448900016070474000003410B5040055
:10082000FFF760FE01002000FFF7F0FFFF232371B8
:10083000BFF35F8F10BDC04610B50400FFF752FE36
:1008400001002000FFF7E2FFFF23A380BFF35F8FCB
:1008500010BDC04683680B4810B5844661446244AD
:10086000090112019A18591854684B6801209C42DA
:1008700001D802D00020C0B210BD12680B689A42A5
:10088000F9D8F7E7FFFFFF0F0A4B1968EFF3108065
:1008900072B60A68002AFCD0BFF35F8F1B68BFF3F3
:1008A0005F8F00221A6080F3108840BF0020002173
:1008B0007047C046240C0020F8B557464E464546C2
:1008C000DE46E0B599460CAB1C780DAB1B780600F4
:1008D00090469A460768002C11D1BC7B002C42D070
:1008E00065003B682D19033D59194B78BB73002BEC
:1008F00000D1FB7300238B704B700B7004E065001C
:100900003B682D19033D5919B2682A4B944642465B
:10091000E3181B0163441A604A465A600A9A9A60B7
:100920000B9ADA6000238B704B700B707B7B9B46BD
:10093000002B2BD022005946B8687B6898473A684C
:10094000002816D05B4658465B005B445519033BB4
:10095000A870D118D35C002B00D06B705B460C7074
:100960007B73A34513D0F0BCBB46B246A946A04654
:10097000F8BD5B465B005B44033BD3189C70511988
:10098000525D002A00D05A705B460B707C73424661
:100990004B46307D00F02EFB051E06D05346002B43
:1009A00003D12100306800F049FD0E9B002BDAD006
:1009B0001D70D8E7FFFFFF0FF0B5DE4657464E46E5
:1009C00045460023E0B58BB00893674B8200D458AE
:1009D00000239B46099000F093FA626806000F001E
:1009E000EFF3108572B61368002BFCD0BFF35F8F56
:1009F00023689C465B7B9946002B00D169E0A26886
:100A00005A4B90464B441B01984443461A685B6816
:100A100010001900801BB941002900DC63E009982F
:100A200000F0E8FA0023002298460023069207937C
:100A300000239A466368BFF35F8F5A461A6085F3B6
:100A400010885346002B08D10028C4D10BB0F0BC4D
:100A5000BB46B246A946A046F0BD089B41461802D7
:100A60004B461843D047626806000F00EFF310852D
:100A700072B61368002BFCD0BFF35F8F002F50DBE2
:100A800033003B4302D02369002B61D12368D97B1B
:100A9000002907D04A00521819688C46494662441A
:100AA000033A51709A7B002A01D14A469A734A460A
:100AB000DA734B46E168013BCA5C0132CA545B46BB
:100AC00023616368BFF35F8F5A461A6085F310880D
:100AD00081E7002300229846002306920793002313
:100AE00000209A46A6E7002902D1002800D096E708
:100AF0000021604600F020FC43461A685B680692BD
:100B0000079343469B689A464346DB689846E368EA
:100B10004B44013B1B7808931B02034323610020D5
:100B200088E72369002BB1D0069A079B921BBB4133
:100B3000002B15DB5946049101210391494602918E
:100B400041460191514620000091FFF7B5FEB6E7FE
:100B500000F0D6F932003B0012184B41002BE9DAC5
:100B60000122034B5242E5E710080020FFFFFF0F70
:100B7000FFFFFF7F10B5144C6368002B04D00A21DF
:100B80001248FFF743FE10BD2300114A10212068D0
:100B900000F0ECFA032000F0A7F9032000F094FA2B
:100BA00003200C4900F0E0F9FFF79CFC0A4B9C463F
:100BB00003232375D0231B061B6860446375074B12
:100BC00080006060DC60DAE7E8010020240C00208F
:100BD00055080010B909001040000034100800202A
:100BE000F0B54E464546DE465746E0B585B0019322
:100BF00010AB1B7806000393002399469846009299
:100C00007268EFF3108B72B61368002BFCD0BFF341
:100C10005F8F3568AC7B002C3DD067002B683F1997
:100C2000033FDB195A78AA73002A00D1EA73B1682E
:100C3000474A8C4600980199A2181201624410603C
:100C400051600E9991600F99D16042469A705A7026
:100C50001A706B7B9A46002B67D022001900A86897
:100C60006B6898472A68002852D0534650465B006C
:100C70005344D719033BB870D118D35C002B00D074
:100C80007B7053460C706B7354454FD0F3681B193F
:100C9000013B187800E000207368BFF35F8F424685
:100CA0001A608BF31088002C4FD04B46002B08D1D4
:100CB0000002204305B0F0BCBB46B246A946A046A0
:100CC000F0BD039B002B3ED00E9B00200F99984750
:100CD000030004000D000B4335D000290ADA009A06
:100CE000019B121BAB4100920193002B0ADB039B7B
:100CF000994685E700F004F924184D4100940195C8
:100D0000002DF4DA0123134C5B4200930194EEE7CB
:100D100053465B005344033BD3189C70D119D25DFA
:100D2000002A00D05A7053460B706C73307D009AC5
:100D3000019B00F05FF981460028A7D021003068B0
:100D400000F07CFBA2E70020B4E701204042B1E7BD
:100D5000FFFFFF0FFFFFFF7FF0B5EFF30583CE46E8
:100D6000474680B505000C0085B0002B12D02C4AF8
:100D70000020536A9C4203D8926A0130AA4204D3ED
:100D800005B0C0BCB946B046F0BDE01A421E904165
:100D9000C0B2F5E7234E02930193234B0200009368
:100DA00030000B00FFF71CFF031EE0DD20BF716861
:100DB000EFF3108772B60A68002AFCD0BFF35F8F8A
:100DC000DAB294463068427B62451DD0FF221A4059
:100DD0005100894601689144884649464144033997
:100DE0008978002913D0F1681B0A88464244013AE9
:100DF0001278DBB29A420FD07368BFF35F8F002284
:100E00001A6087F31088B2E7FF221A40EBE73269D5
:100E10009342F1D13161EFE7614600F00FFBEBE760
:100E200000400540E801002089080010F0B5EFF30C
:100E30000582D6464F4646461000C0B51038EFF33F
:100E4000108872B6214C2368002BFCD0BFF35F8F53
:100E50000123190081401E4D1F006963AA461D4DE4
:100E600029601D4D2E78AC463500C5402F402B42E1
:100E700009D1BFF35F8F276088F31088E0BCBA46C2
:100E8000B146A846F0BD5346144D5F6A83005D59D4
:100E9000AF420ED3124A8E439B5862461670BFF380
:100EA0005F8F0022226088F31088002BE6D09847DD
:100EB000E4E70C4B92009C46624413681360BFF356
:100EC0005F8F0023236088F31088D7E7280100D0C4
:100ED000004005403C700540420C0020280C0020DA
:100EE00084070020D03F054010B50100024A0348A6
:100EF000FFF7C8FA10BDC04678320010400C002041
:100F0000034B596A0A00986A596A8A42FAD17047B3
:100F10000040054070B504000D00124A536A1900E4
:100F2000966A536A8B42FAD13000190024184D4159
:100F3000AB4211D80ED02B000A494A6A9A42FCD320
:100F400007D1084A02E0516A994202D1916AA1424E
:100F5000F9D370BDA642EED9012301246442E517FE
:100F60005B42E9E70040054070B504000D00EFF377
:100F7000108672B61A4A1368002BFCD0BFF35F8F3D
:100F8000002D1BD02000FFF7CBFA164981420AD072
:100F90002000FFF7CDFA01212000FFF7AFFA01236F
:100FA000A340114A1360114BA400E550BFF35F8FBB
:100FB00000220B4B1A6086F3108870BD0B4BA20009
:100FC000D5500122A2400A4920000B7893430B70B0
:100FD0000449FFF7D7FA00212000FFF78FFAE5E771
:100FE000280100D02D0E0010386005408407002035
:100FF000420C0020F0B54F46D6464646C0B5070025
:101000002C4C616A0D00A66A616AA942FAD18B4232
:1010100008D805D00120E0BCBA46B146A846F0BDCC
:10102000B242F7D9EFF3108A72B62348016800295B
:10103000FCD0BFF35F8F0125BD4020491D4C884681
:10104000097889462943C9B28C46414660460870F2
:10105000391D1B48890065630A51B9000B50216A8C
:101060000020294219D0616A0800A66A616A81429B
:10107000FAD18B4219D801D1B24216D8CC4516D03C
:101080000C4B1F201D625D6301230740BB400D4ACE
:101090001E38136043464A461A70BFF35F8F002222
:1010A000054B1A608AF31088B5E70020F5E70120A8
:1010B000F3E7C04600400540280100D0420C002064
:1010C000280C002080E200E0EFF3108C72B60A4991
:1010D0000B68002BFCD0BFF35F8F01238340074ACE
:1010E0000748136202789A430270BFF35F8F0023B0
:1010F0000B608CF310887047280100D00040054039
:10110000420C002070B5050014001600002915D00F
:101110000C00002A12D080686B6898472968002864
:101120000ED073009B196200033B1219CB18033ACF
:101130009C7088188A5C002A15D10670200070BD4A
:1011400063001B197200033B9219CB18033A9E707F
:1011500088188A5C002A02D104703400EEE75A70C5
:1011600004703400EAE75A700670E7E730B5836030
:101170000023CCB243730133047342608373C4739E
:101180000D000068012C06D9421C0133DBB213703C
:1011900003329C42F9D1FF2129404B00591800230A
:1011A00040180338437030BDF8B5CE4647460600B8
:1011B0000C0080B5002907D04D0003686D18033D71
:1011C0005A195778002F04D12000C0BCB946B04648
:1011D000F8BD7900C91903398846434459788946CE
:1011E00000215970517073683A0021008068984757
:1011F0003368002814D042469A18947059195B5DE0
:10120000002B00D053700F70270049463000FFF7C5
:10121000CBFF390002003000FFF774FF0400D3E772
:10122000424641465D19AF709A185B5C002B00D0B6
:101230006B701470E9E7C046F0B557464546DE4688
:101240004E46E0B50D006B0001685B19DF1E04001F
:10125000C85D83B00192CA19002850D043001B1802
:10126000033BCB185E78B446002E1AD1019E002EA7
:1012700042D0E67B002E04D073009B19CB18033BB1
:101280005D70A37B002B00D1A573E57300282FD1DF
:101290000023537003B0F0BCBB46B246A946A0463B
:1012A000F0BD72006244033A89184A7890460022E1
:1012B0004A7091465A70010032002000FFF722FF69
:1012C00043468246002B07D05B0021684344033B22
:1012D000CB185A78002A16D1424651462000FFF713
:1012E00011FF2168019BCA19002BC2D10028CFD061
:1012F00043001B18033BCB1800219970C8E7019BE2
:10130000002BB6D1C4E7500080180338091848787C
:10131000834648464870587041462000FFF7F2FE69
:10132000594680462000FFF73FFF4146020020005B
:10133000FFF7E8FE8046CFE7F0B557464546DE4664
:101340004E46E0B583B00191457B04006B00006818
:101350005B19DF1EC15DC219002952D04B005B181A
:10136000033BC3185E78B446002E1CD1019E002EAC
:1013700044D0E67B002E04D073009B19C318033BB6
:101380005D70A37B002B00D1A573E573002931D1DB
:10139000002328005370617303B0F0BCBB46B24613
:1013A000A946A046F0BD72006244033A8018427814
:1013B00090460022427091465A7020003200FFF79A
:1013C000A1FE43468246002B07D05B0021684344C0
:1013D000033BCB185A78002A17D1424651462000C9
:1013E000FFF790FE019B01002068C219002BC0D1BD
:1013F0000029CDD04B005B18033BC3180020987028
:10140000C6E7019B002BB4D1C2E750008018033817
:10141000091848788346484648705870414620006D
:10142000FFF770FE594680462000FFF7BDFE41469B
:1014300002002000FFF766FE8046CEE770B504008C
:1014400000292CD0437B8B422ED0056848004018E1
:10145000033828188278002A21D053009B18033BB8
:10146000EA5CEE188A4202D11BE0002A08D0530041
:101470009B18033BEB185A788A42F6D142785A708F
:1014800000230122837043702000FFF7D5FE617BAB
:1014900002002000FFF736FE6073012000E000200C
:1014A00070BD43783370EBE701221900FFF7C4FEEB
:1014B00060730120F4E7C046F8B5CE464746040005
:1014C00080B506200E0000F023FA051E51D0524BC5
:1014D0005249E21853425A418023DB039C4692054D
:1014E0004F4B62441A604F4B1A6010008B68984350
:1014F000FBD1494B8021E3185A4253414A4A5B00D1
:1015000049009952062000F003FA3100C00000F0B3
:1015100067FBC30932D14022012190466162A36278
:10152000256BEB0736D427008026E36A00232C378F
:1015300076013E4333600620256300F0E9F9414619
:10154000800000F04DFB236B05009846DB073BD481
:101550006022E36A5A406E2313403360434623639C
:10156000802310229B013B431A60304B23630323EB
:10157000A3642800C0BCB946B046F8BD2C4A9342CB
:101580003FD900232B492C4A6162A362256B904608
:10159000EB07C8D52200C02330329B011343234AF6
:1015A00006201A60666AA26AB601B61800F0B0F9A1
:1015B000224900F015FBB6020100300000F010FBDC
:1015C0000021FFF7A7FCAEE72200C02330329B01C9
:1015D0001343164A06201A60636AA26A9B01994661
:1015E000914400F095F94B4614499B02994600F04E
:1015F000F7FA0100484600F0F3FA0021FFF78AFCF1
:10160000A6E77F2299018846104001304008190062
:101610008044030082E7C0460080FCBF00C0004059
:1016200000E0004000F00040380C00200103000002
:10163000FEFF0000FFFF0000C0FF3F004E0E000055
:1016400030B50C2083B000F0B9F9FEF713FF002885
:101650000ED0994B994A1A605A609A60DA601A6102
:101660005A619A61DA611A62954A5A6203B030BDD2
:10167000944CA06700F0AAF90122934B1A60636CA6
:10168000012BFCD10322914B1A608E4A936B012BE4
:10169000FCD1013301218E4A8E480093043300F0BF
:1016A0003DF905238C4A009301218C4800F036F95E
:1016B0008B4B5A68FF2A02D8802252005A6080223F
:1016C0007D4C824B21691201854D1A60002907D09B
:1016D000606900F085FA431C5800C0180338FDD239
:1016E000E0217F4B02201A681140802252012A43D8
:1016F00011601968484003210140116004219A6873
:101700001142FCD08022802192012A4309011160FC
:10171000802252005A60734B2361734B5968FF2932
:1017200000D85A600321684A6F4B116002399A68E9
:101730001142FCD0E0201A681040802252011A4366
:10174000106018684840032101400220116066497A
:101750008A681042FCD08022920113438022120139
:101760001A608022614B52004A606361604B596885
:10177000FF2900D85A6080225E4BE16912015C4D5E
:101780001A60002907D0606900F02AFA431C58004B
:10179000C0180338FDD2E02255490B681A40802357
:1017A0005B012B431A60802380229B012B43120193
:1017B0001A608022414B52004A60E3614E4B5968E7
:1017C000FF2900D85A6080224C4B216A12014A4DF1
:1017D0001A60002907D0606900F002FA431C580023
:1017E000C0180338FDD2E02243490B681A40802319
:1017F0005B012B431A60802380229B012B43120143
:101800001A60802380225B004B602C4BD202236243
:101810003B4B5968914200D25A608022394B616A31
:101820001201374D1A60002907D0606900F0D8F91D
:10183000431C5800C0180338FDD2E02230490B6821
:101840001A4080235B012B431A60802380229B0176
:101850002B4312011A608023DB024B60184B63623A
:10186000294B5A68FF2A02D8802252005A608022EF
:10187000264BA1691201244D1A60002907D0606926
:1018800000F0AEF9431C5800C0180338FDD2E02226
:101890001D490B681A4080235B012B431A6080238B
:1018A00080229B012B4312011A6080235B004B6056
:1018B0000E4BA361DAE6C0469C070020006CDC02F8
:1018C0001BB70000008000403CB0004030B000403A
:1018D000002F685900800240008C864700C00240FB
:1018E00030800040001BB7003C8000404059730727
:1018F0005480004054B000406080004060B0004020
:101900006C8000406CB000404880004048B000400F
:10191000014B8000C05870479C070020F8B50400B8
:1019200021481D0017000E0000F05AF90100380090
:1019300000F056F9069B29041B0319432368002B6A
:1019400020DB1A4B1A4DE21853425A4180235B01A7
:101950009C461203174B62441A60174B1A6017001B
:10196000AB689F43FBD1C022231D92011A43212360
:101970002660A06013602368002BFCDA0823E16076
:101980001360F8BD3F2322681340B342D9D1A36846
:101990001B051B0D8342D4D1EE22E368D202134013
:1019A0008B42CED1EDE7C046001BB7000040FDBF23
:1019B00000C0004000E0004000F000408023024AE8
:1019C0009B000343D362704700800540AA23064A68
:1019D0001B0113602F230549D360054B1960536821
:1019E000002BFCDA7047C0460040024000B0FA000D
:1019F000006002402C4B2D4A70B51A602C4A2D4BCA
:101A00002D491A6014008B689C43FBD12B4D2C4E42
:101A1000B54208D2013E761BB60808CD9847230090
:101A20000134B342F9D1FFF70BFE264A214B1A606D
:101A3000214A9368DB43DB01DD09002BF9D1402209
:101A4000214B224C224E9A675A671A67DA66B442D3
:101A500008D223682000002B20D00834FEF7ECFECB
:101A6000B442F6D31B4E1C4CC022A168300001F0DA
:101A7000CBF8A660FEF728FDFEF7B6FEFFF77AF872
:101A8000164C174EB44208D2013E361BB60808CC9D
:101A900098472B0001359E42F9D170BD0834FEF7FE
:101AA000BDFEB442D5D3DDE700E00040BFCDFBFE74
:101AB000FE7F3C0000F0004000C0004050020020CB
:101AC00060020020FFFFFF0100F0014048020020FB
:101AD000500200200000002000ED00E06002002025
:101AE0006402002000BEFDE710B5FFF7FBFFC04613
:101AF0000FB400B5084883B001F0B8F9049B002B7F
:101B000007D005A91800019100F018F8034801F06A
:101B1000ADF90120FFF7E6FF9C320010AC32001057
:101B200010B50148FFF7E4FFB032001010B50028EF
:101B300000D110BD01F04EF9FBE7C04610B5094ACF
:101B40000300146884B0002C08D0012200910648DC
:101B5000524203A9A047012004B010BD01F086F94C
:101B60000020F9E70C0800202D1B0010014804217B
:101B7000014B1847100200209D1B0010142310B5C4
:101B80000100188804331B88984710BD162310B530
:101B90000100188802331B88984710BDF8B54746E6
:101BA000CE4680B50F1E19D0142399460433040085
:101BB0000025012698464B461888434621681B8815
:101BC000984701C4431E9841013540420640AF4248
:101BD000F1D13000C0BCB946B046F8BD0126F8E7E7
:101BE000114A936F9B0813D210665166002905D0E5
:101BF000FFE7FFE7FFE7516F106F704704B500285C
:101C000001D00020C04301F027FB002104BDC046E5
:101C1000F0B5146E556E576F166FFFF7E5FF14663B
:101C2000556657671667F0BD000000D044464D4624
:101C300056465F46F0B47047F0BCA046A946B2468F
:101C4000BB46704748404140484018B41B4B5B6856
:101C5000FC46019308BD04DFDB20001018B4174BCD
:101C60001B68FC46019308BD00DFE5200010944688
:101C7000134A926F920809D2624618B40F4BDB6880
:101C8000FC46019308BD0CDF9D2300100C4AF0B503
:101C9000146E556E576F166F6246FFF7EEFF084AD7
:101CA0001466556657671667F0BD18B4034B9B68FA
:101CB000FC46019308BD08DF4122001068030020A4
:101CC000000000D010B54C00620D8023D218DB005C
:101CD000D21A5B057E2A10DD9E3A13DACC1709036F
:101CE000490819435242D140640001341532202A78
:101CF00005DAD0400843604310BD002010BD0846FF
:101D0000604310BDC80FC018013810BD18B4044B93
:101D10001B6EFC46019308BD60DF772600100000B3
:101D200068030020024A034B00B500F0B5F900BD7E
:101D3000182D4454FB2119408A0002D3920D092A20
:101D400008DA18B4064B1B6CFC46019308BD40DF53
:101D5000AB27001000B5FFF7E5FF04BC9646F0E79F
:101D600068030020132370B51D78012D15D010DDF8
:101D70001C48FFF70BFF1C4C01008022200000F0E4
:101D800043FF022D06D01948FFF7F8FE184B1860E4
:101D900070BD154C174BA364F5E7164B124C23602E
:101DA0006360A360E36023616361A361E361236215
:101DB0006362A362E36223636363A363E3632364F5
:101DC0006364A364E36423656365A365E3652366D5
:101DD0006366A366E36623676367A367E367A36439
:101DE000D1E7C04653440000680300204C33000094
:101DF000200C0020A9200010F0B557464E4645465D
:101E0000DE46E0B587B002925A009A46530D9946D5
:101E1000109B4D0004006D0D002B01D000221A60B4
:101E20009A4A95427DD04B46002B7AD0002D00D1A6
:101E300082E027000E00914575D0013B0393AB4231
:101E400071DCCB0F0E039846330B9B4680235B035C
:101E50009C465B46624613431F0053460600180328
:101E60006346000B0343029A0193039B0092AB422B
:101E700000D1AAE04346002B00D1B7E033003C007C
:101E800000275E42A7414B46ED1A002D00DCC0E062
:101E90000120019B40421911FFF7A2FE0023984642
:101EA0004B4603935346AB46029004931BE032002B
:101EB0009A4015003300524693401C004B4648465A
:101EC000D917009A019B00F0F1FD4346524693401A
:101ED0004B4498465B4626002F009B1A361A8F41CA
:101EE0009B46002B2BDD5B46DA460C2B01DD0C23D9
:101EF0009A46029ABB11534351461D22521A13416E
:101F0000202201335B10524299468B18CFD52023F3
:101F100032005B1ADA4013003A008A4015001D4374
:101F2000C8E700275A4E3800310007B0F0BCBB4666
:101F3000B246A946A046F0BD00270026F3E7039B62
:101F40009946049B9A46009B019CBC4200DD83E0BD
:101F500000D17DE0009B019CF61AA741BC4200DD48
:101F60008BE000D185E0009B019CF61AA74102237B
:101F70009C46E0443200009801993B0092197B4155
:101F80008B421ADC17D000998A425AD05346002B54
:101F900002DA43465B429846109B002B01D0424632
:101FA0001A604B463B4A30003900D21AFFF7AEFEAA
:101FB00007000E00B7E78242E5D9009B019CF61AA4
:101FC000A74101239C46E044E0E7019B9F422FDDAF
:101FD00000980199434600184941002B3FD1039BCB
:101FE000361A8F41994601239846CFE74B46ED1AA2
:101FF000002D00DD4CE7019BBB42BBDC009B019C3C
:10200000BC4201D1B342B5D8009B019CF61AA7414E
:1020100033E000239846009B019CF6186741002F8F
:102020002FDAF618674102235B429C46E044A1E7A1
:10203000009A019B9F4201D19642C9D827000E0009
:1020400071E7019A9342A1D14346DB079ED5B4E7DD
:10205000009BB34200D87DE7002FDCDB8AE7039BBF
:10206000801BB941994601235B4206000F00984648
:102070008CE7009BB34200D875E701239C46E044FF
:1020800078E701235B429C46E04473E7FF070000CA
:102090000000F07F3304000010B5002482B00094EB
:1020A000FFF7AAFE02B010BD07B5604601880A0A14
:1020B0000230DF2AFAD1C9B2820804D302884088EC
:1020C0000004104300E00068014A5050039007BD2F
:1020D000680300200FB403BC0CBCF0B50124E40776
:1020E000634000E0F0B50C0DCF0F661E3605891B6E
:1020F000640503D3C943404200D30131640D03D0CA
:10210000661CF60A07D0E41B00207F00791C8907B3
:102110008912803C24031D0DDF0F6E1E36059B1BAC
:102120006D0503D3DB43524200D301336D0D03D061
:102130006E1CF60A07D0ED1B00227F007B1C9B075C
:102140009B12803D2D032F1B661B58D4A446202EC6
:1021500046DA20371400BC401D00BD40F240334138
:102160002A4380185941CB0F05D0C943C0430022F0
:1021700064425041514162464D0D28D10D0D07D1A9
:1021800000281FD0241940414941013A0D0DF9D0D2
:10219000640006D3013000D30131002C01D1400886
:1021A0004000013A0BD4941CE40A04D112051144F6
:1021B000DB071944F0BDD907204B194300E0D907CC
:1021C0000020F0BD0029DDD1002CDBD1F0BD0132B3
:1021D000C6074008CD0728434908002EE1D0D9E7BB
:1021E0003C2E29DA203E40371400BC4000D00124A8
:1021F000F24014431A00BB401C43D317ACE7AC4673
:10220000202F08DA20360400B4400D00B540F84015
:1022100039412843A5E73C2F0CDA203F4036040023
:10222000B44000D00124F84004430800B1400C43FE
:10223000C117EAE710001900002494E70000F07FBE
:10224000F0B50C0D661E3605891BE60A6405640DA3
:1022500002D0651CED0A04D0002001210905803C54
:102260002403A4461C0D671E3F05DB1BE70A64051B
:10227000640D02D0651CED0A04D0002201231B0569
:10228000803C24037740644497B484B296B274438C
:10229000070C7E43150C6F4380B26843361802D397
:1022A000012000043F183004350C00197D4184469C
:1022B00088B29AB250430C0C62431F0C7C438EB21E
:1022C0007E43921902D301263604A4191604170C72
:1022D0003618674101BC81B29AB25143040C624383
:1022E0001B0C5C4380B25843121802D30120000437
:1022F00024181004130C401863412D185E4100206F
:10230000474106BC88B293B258430C0C6343120C8D
:10231000544389B251435B1802D301210904641864
:1023200019041A0C091862416D18564100204741E2
:1023300018BCF902720D1143F0026A0D1043ED0250
:102340000A0D03D16D1940414941013B124E9B1BBF
:102350007600B3420ED26D0007D3013000267141E2
:102360006646354301D1400840001B05C918E40703
:102370002144F0BD0BDA013306D1013004D1013123
:102380004F0D01D04908F2E7E1070020F0BD01360A
:1023900031050020EBE70000FF030000F0B51C0D45
:1023A000671E3F05DB1BE70A6405640D02D0661C4F
:1023B000F60A04D0002201231B05803C2403D0250B
:1023C0002D060026F6432E661E096E66CE0FF61900
:1023D000B44649004F0D02D07E1CF60A03D00020FF
:1023E0000021403F3F033E1BB600B444013F7F0540
:1023F000C91B49082E6F013676089C02950D2543AE
:102400007543ED137543AD1301356D10F603761B5F
:102410000CB4CC02450D2C43A2B2B3B25A43270CE4
:102420007B43350C6F43A4B26C431B1902D30124C8
:1024300024043F191C041D0CA4187D4124196D416E
:10244000009A91B2ACB26143170C7C432B0C5F43F2
:1024500092B25A43A41802D301221204BF182204D4
:10246000230C52187B41019C6C431B19520ED9015D
:102470000A434401A01A81B2B2B2514303145A4331
:10248000360C734387B27743D617D21900277E41A3
:1024900036049B191704160C7F185E417316ED184D
:1024A000F301002680337541A90F06D16400690A43
:1024B000E8055B0A184309D22FE0042294448033D4
:1024C0007541A90AA8059B0A184326D340414941F2
:1024D0002404009A019B0D005543641B4343E41AF6
:1024E00095B286B27543170C7E43030C5F4392B2DC
:1024F0005A43B61802D301221204BF183204330C17
:1025000052197B4152429C41002C02D400220130DE
:1025100051414008CA071043490802B06246D70734
:102520009210084BD218084B9A4203D21205891810
:10253000C919F0BD0020002A01DC3900F0BD0133CB
:102540001905F5E7FD030000FE070000624618CA02
:1025500094465A46002A20DB04E0624618CA944694
:1025600000291ADAC01861415B463B415C46B44021
:102570005246FA40224344464D4662416B419046E2
:1025800099462B46B3403D41FC401C4352465B46B6
:10259000A241AB4192469B467047C01AA1414B46AF
:1025A0003B414C46B4404246FA40224354465D46C5
:1025B00062416B4192469B462B46B3403D41FC40F5
:1025C0001C4342464B46A241AB4190469946704758
:1025D000002200B500F00DF8CA179A4200D100BDE4
:1025E000D8430121C907414000BD000000220B155E
:1025F0000AD410B5944600F079F81414013400DAC6
:102600000021CB17144C2047002000217047624462
:10261000343A0CD40C2A07DA04009140904052421C
:102620002032D440214310BDD843D94310BD2032BD
:1026300007D40C469440524220321141D0402043EE
:1026400010BD0800C917203203D452422032104175
:1026500010BD1800190010BD0F26001000210A003F
:10266000002104E000210A00C11704E00022002339
:1026700006E0C0460022CB1758405940C01A994185
:1026800030B5184CA21A002903D1010010D0002047
:10269000203A4C1512D104D2013A001849414C0D90
:1026A000FAD3114CA24204D212058918DB07C918CB
:1026B00030BDD243520D00200021F5E703D4013A8A
:1026C00000184941FBD50B324405C00A4D0528438B
:1026D000C90A640003D0002460416141E1E7E0D30E
:1026E0004408F8E732040000FE0700000A0DCC0F92
:1026F000531E1B05C91A520503D3C943404200D3D8
:102700000131520D03D0531CDB0A07D0121B0020ED
:102710006400611C89078912803A1203014BD21AA6
:1027200070470000FF030000023225D40C2A1CDA97
:102730001125AD1A0B002B41083207350600EE407B
:10274000904091403143F0CC63431A1500235A4125
:10275000554356435743BF02F41276057619674135
:10276000ED177F19801BB94170470C220020C91753
:10277000490001310905DBE70902030E1943000294
:102780005342203208D40C0019419440D8402043D1
:1027900000225041514170470800C917203B2032A8
:1027A000F1D50020002100227047F0B5FFF73EFA76
:1027B00000F006F800F046F8FFF73EFAF0BD000022
:1027C00000B5FFF793FF30A4FFF7AEFF00242C4DB8
:1027D0002C4ED20702D3F6436D426641520004D21A
:1027E000A246A346A846B14603E0A046A146AA4693
:1027F000B3466EA4A44601271F26FFF7AEFE01379D
:10280000013E212FF9D100BD594684B28DB26C43EF
:10281000061475430B145E4382B25A43AD18EA178F
:1028200000D7D2431204B6182A042B0C1219734194
:10283000404649469D009B17920F2A43904199417B
:102840003E2218E7494684B28DB26C4306147543A4
:102850000B145E4382B25A43AD18EA1700D7D24335
:102860001204B6182A042B0C12197341504659460B
:102870009D009B17920F2A43504159413E22FAE690
:10288000BB4DF09DC556F6367D5100001A6114000F
:1028900085880A00FB211900F0B5FFF7C7F9404D04
:1028A0000C002C4001D0AC4202D1090D09050020DA
:1028B0001C002C4001D0AC4202D11B0D1B05002294
:1028C0000026ED02002B04D502266B40694000D49F
:1028D00076424F1904D599420CDD0136694003E078
:1028E000BB4207DA013E6B40070010003A000F00C0
:1028F00019003B0040B4002A0FD1002B0AD05C0025
:102900006415013409D14C006415013402D1013938
:10291000013B02E0002000212EE0FFF73FFD3E22B8
:10292000FFF757FE82468B46002000218046012299
:10293000920791461DA4A44601271F26FFF706FE15
:102940000137013E212FF9D14A4653460C3A012462
:102950006407002752081B0005D4934100197941F0
:102960006408F7D104E05341001BB9416408F1D178
:10297000CE0749104008304340BC002E0AD0094C15
:10298000094D01D5E443ED43F60701D10019694132
:10299000001969413D22FFF76EFEFFF74DF9F0BDCA
:1029A0000000F07F8D305A88A8F64332694FBB6132
:1029B0000567AC1DB16E4096FCBAAD0F72DB0BAB78
:1029C000A66EF50739BD9FE576ABFE034B6297BA5D
:1029D0005BD5FF01D694DBDDAAFAFF005DEAEE5677
:1029E00055FF7F006E77B7AAEAFF3F00BCBB555585
:1029F000FDFF1F00DEADAAAAFFFF0F006F5555F5C2
:102A0000FFFF0700ABAAAAFEFFFF03005555D5FF45
:102A1000FFFF0100ABAAFAFFFFFF00005555FFFFC3
:102A2000FF7F0000ABEAFFFFFF3F000055FDFFFF07
:102A3000FF1F0000ABFFFFFFFF0F0000F5FFFFFFD0
:102A4000FF070000FFFFFFFFFF0300000000000082
:102A50000002000000000000000100000000000073
:102A600080000000000000004000000000000000A6
:102A70002000000000000000100000000000000026
:102A8000080000000000000004000000000000003A
:102A900002000000000000000100000000000080B3
:102AA00000000000000000400000000051434343CC
:102AB000C9188C46110C83B24B4310B4040C61430B
:102AC00092B280B2504362431C041B0C001910BC2C
:102AD00059411304120CC018514161447047000061
:102AE000C10FC90700D54042002817D0F44603B4EF
:102AF0000B4B1B68984706BC81409E384042803192
:102B000007D20B0607D04900490AC0051043084305
:102B100060470130F8E7490A8902F5E7704700008D
:102B2000200C0020034BDB6FFC4618477CDFC92BD1
:102B30000010000068040020132310B512481C7810
:102B4000FFF724F80100012C0AD003DD80220F4892
:102B500000F05AF80E48FFF711F80E4B186010BD40
:102B60000A4C5422200000F04FF80B4B6365A3651C
:102B7000E36523666366A366E36623676367A3670B
:102B8000E3672362E361E5E7534600006804002041
:102B90004C330000200C00209D2B001007B5604630
:102BA00001880A0A0230DF2AFAD1C9B2820804D3A6
:102BB000028840880004104300E00068014A505039
:102BC000039007BD68040020C30FDB0741000A0E15
:102BD00007D0FF2A08D00909054A89181943400778
:102BE00070471900002070470249C918FAE7000031
:102BF000000000380000F07F01480421014B184715
:102C0000200200209D1B0010014B5B68184700004C
:102C100020020020030010B5080011001B6898472F
:102C200010BDC046F0B546464F46D646C0B5437DBA
:102C300080460E001700002B46D0002A3FDD4B1EB9
:102C40009946244B0125002400209A460DE04B466E
:102C50001B5D0D3B5A425341325DDBB20A2A0BD059
:102C60002B00013401359F421ADD002CEFD1434681
:102C7000325D1B7D0A2AF3D1002BF1D1A04204DA88
:102C80004346211A1B6830189847434650461B6834
:102C900002219847013428002B0001359F42E4DCD3
:102CA000874204DD4346391A1B6830189847F619E5
:102CB000013E33780D3B5A42534142461375E0BC06
:102CC000BA46B146A846F0BD0368110030009847E7
:102CD000F5E7C04620330010F0B5DE4657464E46B5
:102CE0004546E0B585B017001C0006000D00FEF754
:102CF00007F90023304A12184B41002B58DB2F49AB
:102D000008008A4600F0B0FA01906B1C03D1300035
:102D100000F06AFA0500002C25D1294B9846294B72
:102D20001C68002C15D0002F20D1274F02E0246909
:102D3000002C0ED02368002BF9D03B68002B01D06B
:102D4000A342F4D120002A003100C0472469002C9E
:102D5000F0D1019B002B27D105B0F0BCBB46B24699
:102D6000A946A046F0BD194B9846D8E7164B9946A0
:102D700002ABDF1D0A239B4602E02469002CE8D049
:102D80002368002BF9D04B461B68002B01D0A342CF
:102D9000F3D12A0031002000C0475B4601223900F0
:102DA00020003B70C047E8E7504600F04DFAD3E7FB
:102DB0000122074B5242A2E740420F004802002086
:102DC000252C00100408002008080020152C0010F5
:102DD000FFFFFF7FF0B5CE46474680B583B06B4618
:102DE0000600DD1D2870FEF78BF800231A4A121822
:102DF0004B41002B2BDB19490800884600F034FAC0
:102E0000174B81461C68002C14D0164F02E0246931
:102E1000002C0FD02368002BF9D03B68002B01D089
:102E2000A342F4D1200001222900FFF7FBFE246910
:102E3000002CEFD14B46002B05D1300003B0C0BCB5
:102E4000B946B046F0BD404600F0FEF9F5E7012274
:102E5000054B5242CFE7C04640420F0048020020D7
:102E60000408002008080020FFFFFF7F70B5040061
:102E700000F0BAF900230100050001222000FFF74D
:102E80002BFF084B1C68002C06D06368002B05D074
:102E900098472469002CF8D1280070BD2469002CC3
:102EA000F3D1F9E7040800200A4A1368002B05D182
:102EB0000CE01A001B691032002B07D09842F8D1A1
:102EC000002902D103691360016170470029FCD019
:102ED0001060FAE70408002010B500F0C5F80120E2
:102EE00010BDC046F0B50D1E15DD0E4B0D271A683E
:102EF0000D4B4519D31859424B410C495B005E5E9E
:102F000020210478A64207D093691942FCD10130F0
:102F10001460A842F5D1F0BD93691942FCD1176045
:102F2000F2E7C0463C0C00200080FCBF380C0020BB
:102F300030B504000D1E26DD002010211B4B013C86
:102F40001A689369194219D1013093691942FCD169
:102F5000136823548542F4D1154B1B68002B0CD009
:102F600050239363516B183B34320B401100802285
:102F700052010A431360002815D030BD0C4B1B686A
:102F8000002BEDD1F7E70A4B1B68002B0BD050222A
:102F90003821064B1B689A635A6B343311408022E8
:102FA00052011343196003204042E6E73C0C002025
:102FB00094070020064B10B51B68002B06D000219B
:102FC000044A12689163044A1068984710BDC046CD
:102FD000940700203C0C0020980700201D4BF0B502
:102FE0001A68C64698461C4B0E00D31859424B41EE
:102FF0001A4F14331C00050000B53B68002807D0A9
:10300000002B11D0164B3D601E6080BCB846F0BD51
:10301000002BF7D0906300212000FDF76FFA20000D
:103020001049FDF7AFFAEDE720000E49FDF780FAF1
:1030300001212000FDF762FA4346502238211B6827
:103040009A635A6B34331140802252011343196042
:10305000D8E7C0463C0C00200080FCBF940700204D
:1030600098070020B52F00100C4B10B51B780C4BA7
:103070000C4C1B780C4B022100202360FDF7E2F979
:1030800002210120FDF7DEF9E12120684902FEF767
:1030900013FA01210548FFF707FF10BD8033001028
:1030A000843300103C0C002000400340300200201C
:1030B000F0B557468246484B454653445A42534121
:1030C0008022DE464E46920294465B42E0B51B0CDF
:1030D000424A1B0463441360414A0D00414985B0D4
:1030E000136018008A689043FBD181460620FEF7E2
:1030F0000FFC53465A6802231A400192524604328A
:1031000011000292C02280468020920111430B6080
:103110000391EF0D02216E02AB0DAA02400005E003
:10312000904507D392197B4181424FD00C00023168
:10313000002BF5D02B008026270245463F1BA046DA
:1031400076001C0003E04346FF1A012E40D03900F0
:103150002800B346013EFEF743FD8442F3D24446C5
:1031600059463302A8469946614353464A461C6174
:103170001B6850465340FF22120213408022520126
:10318000024313608023029C01989B011C43206032
:1031900002255046039E406835605646072736682C
:1031A00028407740CF263E401660206050462430AD
:1031B00018430323036040462560FEF711FD05B068
:1031C000F0BCBB46B246A946A046F0BD0C00B1E734
:1031D00044461900A846C8E70040FCBF00E0004094
:1031E00000F0004000C0004010B583070AD0030083
:1031F000032102E001330B4205D01A78002AF9D1ED
:10320000181A10BD030019680C4A0D4C8A188A431D
:1032100022420FD15968094A04338A188A4322424C
:1032200008D15968054A04338A188A432242F1D0EA
:1032300000E001331A78002AFBD1E1E7FFFEFEFE31
:1032400080808080F8B5C04601B40248844601BC45
:10325000604700BF5D01002001B40248844601BC04
:10326000604700BF8501002001B40248844601BCCC
:08327000604700BFC10000200F
:10327800486172647761726520616C61726D2025A6
:103288006420616C726561647920636C61696D6545
:10329800640000000A2A2A2A2050414E4943202A65
:1032A8002A2A0A000A0000004861726420617373C8
:1032B8006572740052656C6561736500626F6F7446
:1032C800325F77323571303830000000312E352EBC
:1032D800310000007069636F00000000646D612DAB
:1032E80064656D6F00000000536570202037203240
:1032F8003032330006005250BBFF3CB6DC320010BF
:1033080006005250E182887FC432001006005250F5
:10331800D3F07542BC3200100D0A000055415254DA
:1033280020737464696E00005541525420737464AC
:103338006F7574005541525420737464696E202F60
:10334800207374646F7574000600525053B4F4A16E
:0C3358003C3300100800525092000000AE
:10336400AC020010A002001094020010FC32001005
:10337400880200100833001014330010503300107A
:043384005C330010A6
:10338800F0B5C646150000B504001E000268EFF34C
:10339800108172B61368002BFCD0BFF35F8F042333
:1033A800E356002B2DDB2268BFF35F8F00201060EF
:1033B80081F31088D0221206127852B290469A42AF
:1033C80003D1002080BCB846F0BD00270BE023687D
:1033D800BFF35F8F1F6081F310882800310000F071
:1033E80033F80028EDD12268EFF3108172B6136824
:1033F800002BFCD0BFF35F8F23797F2BE7D943469F
:1034080002E0D0231B061B6823712368BFF35F8F7C
:1034180000221A6081F310880120D3E70268EFF3D5
:10342800108172B61368002BFCD0BFF35F8FFF23A7
:1034380003710368BFF35F8F00221A6081F310885D
:1034480040BF70477047C04601B40248844601BC7B
:10345800604700BF590D00108405002010000000CF
:103468000000000000000100000000000000000053
:10347800000002000000000000000000000003003F
:1034880000000000000000000000FF000000000035
:1034980001B5486801318E46004770460938014930
:1034A800884701BD35070010000200200000000019
:1034B80068020020C407002000000000000000008F
:1034C800D4070020000000000000000010000000E9
:1034D800503300004C3300005433000052330000D6
:1034E8004D5300004D4300005334000043340000A6
:1034F800E52E001000000000312F0010DD2F001015
:1035080000000000000100000000000000000000B2
:10351800F92B00106D1B0010651D0010392B0010D1
:04352800E5020010A8
:04000005100001E9FD
:00000001FF
